{
	"product.sol": {
		"product": {
			"abi": [
				{
					"inputs": [],
					"stateMutability": "nonpayable",
					"type": "constructor"
				},
				{
					"inputs": [
						{
							"internalType": "string",
							"name": "_name",
							"type": "string"
						},
						{
							"internalType": "uint256",
							"name": "_price",
							"type": "uint256"
						}
					],
					"name": "createProduct",
					"outputs": [],
					"stateMutability": "nonpayable",
					"type": "function"
				},
				{
					"inputs": [],
					"name": "getAllProducts",
					"outputs": [
						{
							"components": [
								{
									"internalType": "uint256",
									"name": "id",
									"type": "uint256"
								},
								{
									"internalType": "string",
									"name": "name",
									"type": "string"
								},
								{
									"internalType": "uint256",
									"name": "price",
									"type": "uint256"
								},
								{
									"internalType": "address",
									"name": "owner",
									"type": "address"
								},
								{
									"internalType": "bool",
									"name": "isAuthentic",
									"type": "bool"
								}
							],
							"internalType": "struct product.Product[]",
							"name": "",
							"type": "tuple[]"
						}
					],
					"stateMutability": "view",
					"type": "function"
				},
				{
					"inputs": [
						{
							"internalType": "uint256",
							"name": "_id",
							"type": "uint256"
						}
					],
					"name": "getProduct",
					"outputs": [
						{
							"components": [
								{
									"internalType": "uint256",
									"name": "id",
									"type": "uint256"
								},
								{
									"internalType": "string",
									"name": "name",
									"type": "string"
								},
								{
									"internalType": "uint256",
									"name": "price",
									"type": "uint256"
								},
								{
									"internalType": "address",
									"name": "owner",
									"type": "address"
								},
								{
									"internalType": "bool",
									"name": "isAuthentic",
									"type": "bool"
								}
							],
							"internalType": "struct product.Product",
							"name": "",
							"type": "tuple"
						}
					],
					"stateMutability": "view",
					"type": "function"
				},
				{
					"inputs": [
						{
							"internalType": "uint256",
							"name": "_id",
							"type": "uint256"
						}
					],
					"name": "markProductAsFake",
					"outputs": [],
					"stateMutability": "nonpayable",
					"type": "function"
				},
				{
					"inputs": [
						{
							"internalType": "uint256",
							"name": "_id",
							"type": "uint256"
						}
					],
					"name": "markProductAsReal",
					"outputs": [],
					"stateMutability": "nonpayable",
					"type": "function"
				},
				{
					"inputs": [],
					"name": "productCount",
					"outputs": [
						{
							"internalType": "uint256",
							"name": "",
							"type": "uint256"
						}
					],
					"stateMutability": "view",
					"type": "function"
				},
				{
					"inputs": [
						{
							"internalType": "uint256",
							"name": "",
							"type": "uint256"
						}
					],
					"name": "products",
					"outputs": [
						{
							"internalType": "uint256",
							"name": "id",
							"type": "uint256"
						},
						{
							"internalType": "string",
							"name": "name",
							"type": "string"
						},
						{
							"internalType": "uint256",
							"name": "price",
							"type": "uint256"
						},
						{
							"internalType": "address",
							"name": "owner",
							"type": "address"
						},
						{
							"internalType": "bool",
							"name": "isAuthentic",
							"type": "bool"
						}
					],
					"stateMutability": "view",
					"type": "function"
				},
				{
					"inputs": [
						{
							"internalType": "uint256",
							"name": "_id",
							"type": "uint256"
						}
					],
					"name": "verifyProductAuthenticity",
					"outputs": [
						{
							"internalType": "bool",
							"name": "",
							"type": "bool"
						}
					],
					"stateMutability": "view",
					"type": "function"
				}
			],
			"devdoc": {
				"kind": "dev",
				"methods": {},
				"version": 1
			},
			"evm": {
				"assembly": "    /* \"product.sol\":66:1572  contract product {... */\n  mstore(0x40, 0x80)\n    /* \"product.sol\":334:383  constructor() {... */\n  callvalue\n  dup1\n  iszero\n  tag_1\n  jumpi\n  0x00\n  dup1\n  revert\ntag_1:\n  pop\n    /* \"product.sol\":374:375  0 */\n  0x00\n    /* \"product.sol\":359:371  productCount */\n  0x01\n    /* \"product.sol\":359:375  productCount = 0 */\n  dup2\n  swap1\n  sstore\n  pop\n    /* \"product.sol\":66:1572  contract product {... */\n  dataSize(sub_0)\n  dup1\n  dataOffset(sub_0)\n  0x00\n  codecopy\n  0x00\n  return\nstop\n\nsub_0: assembly {\n        /* \"product.sol\":66:1572  contract product {... */\n      mstore(0x40, 0x80)\n      callvalue\n      dup1\n      iszero\n      tag_1\n      jumpi\n      0x00\n      dup1\n      revert\n    tag_1:\n      pop\n      jumpi(tag_2, lt(calldatasize, 0x04))\n      shr(0xe0, calldataload(0x00))\n      dup1\n      0x99b19ed3\n      gt\n      tag_11\n      jumpi\n      dup1\n      0x99b19ed3\n      eq\n      tag_7\n      jumpi\n      dup1\n      0xb9db15b4\n      eq\n      tag_8\n      jumpi\n      dup1\n      0xe0f6ef87\n      eq\n      tag_9\n      jumpi\n      dup1\n      0xe9300c6c\n      eq\n      tag_10\n      jumpi\n      jump(tag_2)\n    tag_11:\n      dup1\n      0x02ee3a52\n      eq\n      tag_3\n      jumpi\n      dup1\n      0x031e0535\n      eq\n      tag_4\n      jumpi\n      dup1\n      0x767bdff1\n      eq\n      tag_5\n      jumpi\n      dup1\n      0x7acc0b20\n      eq\n      tag_6\n      jumpi\n    tag_2:\n      0x00\n      dup1\n      revert\n        /* \"product.sol\":1154:1448  function getAllProducts() public view returns (Product[] memory) {... */\n    tag_3:\n      tag_12\n      tag_13\n      jump\t// in\n    tag_12:\n      mload(0x40)\n      tag_14\n      swap2\n      swap1\n      tag_15\n      jump\t// in\n    tag_14:\n      mload(0x40)\n      dup1\n      swap2\n      sub\n      swap1\n      return\n        /* \"product.sol\":735:936  function markProductAsFake(uint256 _id) public{... */\n    tag_4:\n      tag_16\n      0x04\n      dup1\n      calldatasize\n      sub\n      dup2\n      add\n      swap1\n      tag_17\n      swap2\n      swap1\n      tag_18\n      jump\t// in\n    tag_17:\n      tag_19\n      jump\t// in\n    tag_16:\n      stop\n        /* \"product.sol\":597:723  function verifyProductAuthenticity(uint256 _id) public view returns (bool) {... */\n    tag_5:\n      tag_20\n      0x04\n      dup1\n      calldatasize\n      sub\n      dup2\n      add\n      swap1\n      tag_21\n      swap2\n      swap1\n      tag_18\n      jump\t// in\n    tag_21:\n      tag_22\n      jump\t// in\n    tag_20:\n      mload(0x40)\n      tag_23\n      swap2\n      swap1\n      tag_24\n      jump\t// in\n    tag_23:\n      mload(0x40)\n      dup1\n      swap2\n      sub\n      swap1\n      return\n        /* \"product.sol\":243:287  mapping (uint256 => Product) public products */\n    tag_6:\n      tag_25\n      0x04\n      dup1\n      calldatasize\n      sub\n      dup2\n      add\n      swap1\n      tag_26\n      swap2\n      swap1\n      tag_18\n      jump\t// in\n    tag_26:\n      tag_27\n      jump\t// in\n    tag_25:\n      mload(0x40)\n      tag_28\n      swap6\n      swap5\n      swap4\n      swap3\n      swap2\n      swap1\n      tag_29\n      jump\t// in\n    tag_28:\n      mload(0x40)\n      dup1\n      swap2\n      sub\n      swap1\n      return\n        /* \"product.sol\":942:1142  function markProductAsReal(uint256 _id) public{... */\n    tag_7:\n      tag_30\n      0x04\n      dup1\n      calldatasize\n      sub\n      dup2\n      add\n      swap1\n      tag_31\n      swap2\n      swap1\n      tag_18\n      jump\t// in\n    tag_31:\n      tag_32\n      jump\t// in\n    tag_30:\n      stop\n        /* \"product.sol\":1460:1569  function getProduct(uint256 _id) public view returns (Product memory) {... */\n    tag_8:\n      tag_33\n      0x04\n      dup1\n      calldatasize\n      sub\n      dup2\n      add\n      swap1\n      tag_34\n      swap2\n      swap1\n      tag_18\n      jump\t// in\n    tag_34:\n      tag_35\n      jump\t// in\n    tag_33:\n      mload(0x40)\n      tag_36\n      swap2\n      swap1\n      tag_37\n      jump\t// in\n    tag_36:\n      mload(0x40)\n      dup1\n      swap2\n      sub\n      swap1\n      return\n        /* \"product.sol\":294:321  uint256 public productCount */\n    tag_9:\n      tag_38\n      tag_39\n      jump\t// in\n    tag_38:\n      mload(0x40)\n      tag_40\n      swap2\n      swap1\n      tag_41\n      jump\t// in\n    tag_40:\n      mload(0x40)\n      dup1\n      swap2\n      sub\n      swap1\n      return\n        /* \"product.sol\":395:585  function createProduct(string memory _name, uint256 _price) public {... */\n    tag_10:\n      tag_42\n      0x04\n      dup1\n      calldatasize\n      sub\n      dup2\n      add\n      swap1\n      tag_43\n      swap2\n      swap1\n      tag_44\n      jump\t// in\n    tag_43:\n      tag_45\n      jump\t// in\n    tag_42:\n      stop\n        /* \"product.sol\":1154:1448  function getAllProducts() public view returns (Product[] memory) {... */\n    tag_13:\n        /* \"product.sol\":1201:1217  Product[] memory */\n      0x60\n        /* \"product.sol\":1230:1258  Product[] memory allProducts */\n      0x00\n        /* \"product.sol\":1275:1287  productCount */\n      sload(0x01)\n        /* \"product.sol\":1261:1288  new Product[](productCount) */\n      0xffffffffffffffff\n      dup2\n      gt\n      iszero\n      tag_47\n      jumpi\n      tag_48\n      tag_49\n      jump\t// in\n    tag_48:\n    tag_47:\n      mload(0x40)\n      swap1\n      dup1\n      dup3\n      mstore\n      dup1\n      0x20\n      mul\n      0x20\n      add\n      dup3\n      add\n      0x40\n      mstore\n      dup1\n      iszero\n      tag_50\n      jumpi\n      dup2\n      0x20\n      add\n    tag_51:\n      tag_52\n      tag_53\n      jump\t// in\n    tag_52:\n      dup2\n      mstore\n      0x20\n      add\n      swap1\n      0x01\n      swap1\n      sub\n      swap1\n      dup2\n      tag_51\n      jumpi\n      swap1\n      pop\n    tag_50:\n      pop\n        /* \"product.sol\":1230:1288  Product[] memory allProducts = new Product[](productCount) */\n      swap1\n      pop\n        /* \"product.sol\":1314:1323  uint256 i */\n      0x00\n        /* \"product.sol\":1326:1327  1 */\n      0x01\n        /* \"product.sol\":1314:1327  uint256 i = 1 */\n      swap1\n      pop\n        /* \"product.sol\":1309:1412  for (uint256 i = 1; i <= productCount; i++) {... */\n    tag_54:\n        /* \"product.sol\":1334:1346  productCount */\n      sload(0x01)\n        /* \"product.sol\":1329:1330  i */\n      dup2\n        /* \"product.sol\":1329:1346  i <= productCount */\n      gt\n        /* \"product.sol\":1309:1412  for (uint256 i = 1; i <= productCount; i++) {... */\n      tag_55\n      jumpi\n        /* \"product.sol\":1389:1397  products */\n      0x00\n        /* \"product.sol\":1389:1400  products[i] */\n      dup1\n        /* \"product.sol\":1398:1399  i */\n      dup3\n        /* \"product.sol\":1389:1400  products[i] */\n      dup2\n      mstore\n      0x20\n      add\n      swap1\n      dup2\n      mstore\n      0x20\n      add\n      0x00\n      keccak256\n        /* \"product.sol\":1368:1400  allProducts[i - 1] = products[i] */\n      mload(0x40)\n      dup1\n      0xa0\n      add\n      0x40\n      mstore\n      swap1\n      dup2\n      0x00\n      dup3\n      add\n      sload\n      dup2\n      mstore\n      0x20\n      add\n      0x01\n      dup3\n      add\n      dup1\n      sload\n      tag_57\n      swap1\n      tag_58\n      jump\t// in\n    tag_57:\n      dup1\n      0x1f\n      add\n      0x20\n      dup1\n      swap2\n      div\n      mul\n      0x20\n      add\n      mload(0x40)\n      swap1\n      dup2\n      add\n      0x40\n      mstore\n      dup1\n      swap3\n      swap2\n      swap1\n      dup2\n      dup2\n      mstore\n      0x20\n      add\n      dup3\n      dup1\n      sload\n      tag_59\n      swap1\n      tag_58\n      jump\t// in\n    tag_59:\n      dup1\n      iszero\n      tag_60\n      jumpi\n      dup1\n      0x1f\n      lt\n      tag_61\n      jumpi\n      0x0100\n      dup1\n      dup4\n      sload\n      div\n      mul\n      dup4\n      mstore\n      swap2\n      0x20\n      add\n      swap2\n      jump(tag_60)\n    tag_61:\n      dup3\n      add\n      swap2\n      swap1\n      0x00\n      mstore\n      keccak256(0x00, 0x20)\n      swap1\n    tag_62:\n      dup2\n      sload\n      dup2\n      mstore\n      swap1\n      0x01\n      add\n      swap1\n      0x20\n      add\n      dup1\n      dup4\n      gt\n      tag_62\n      jumpi\n      dup3\n      swap1\n      sub\n      0x1f\n      and\n      dup3\n      add\n      swap2\n    tag_60:\n      pop\n      pop\n      pop\n      pop\n      pop\n      dup2\n      mstore\n      0x20\n      add\n      0x02\n      dup3\n      add\n      sload\n      dup2\n      mstore\n      0x20\n      add\n      0x03\n      dup3\n      add\n      0x00\n      swap1\n      sload\n      swap1\n      0x0100\n      exp\n      swap1\n      div\n      0xffffffffffffffffffffffffffffffffffffffff\n      and\n      0xffffffffffffffffffffffffffffffffffffffff\n      and\n      0xffffffffffffffffffffffffffffffffffffffff\n      and\n      dup2\n      mstore\n      0x20\n      add\n      0x03\n      dup3\n      add\n      0x14\n      swap1\n      sload\n      swap1\n      0x0100\n      exp\n      swap1\n      div\n      0xff\n      and\n      iszero\n      iszero\n      iszero\n      iszero\n      dup2\n      mstore\n      pop\n      pop\n        /* \"product.sol\":1368:1379  allProducts */\n      dup3\n        /* \"product.sol\":1384:1385  1 */\n      0x01\n        /* \"product.sol\":1380:1381  i */\n      dup4\n        /* \"product.sol\":1380:1385  i - 1 */\n      tag_63\n      swap2\n      swap1\n      tag_64\n      jump\t// in\n    tag_63:\n        /* \"product.sol\":1368:1386  allProducts[i - 1] */\n      dup2\n      mload\n      dup2\n      lt\n      tag_65\n      jumpi\n      tag_66\n      tag_67\n      jump\t// in\n    tag_66:\n    tag_65:\n      0x20\n      mul\n      0x20\n      add\n      add\n        /* \"product.sol\":1368:1400  allProducts[i - 1] = products[i] */\n      dup2\n      swap1\n      mstore\n      pop\n        /* \"product.sol\":1348:1351  i++ */\n      dup1\n      dup1\n      tag_68\n      swap1\n      tag_69\n      jump\t// in\n    tag_68:\n      swap2\n      pop\n      pop\n        /* \"product.sol\":1309:1412  for (uint256 i = 1; i <= productCount; i++) {... */\n      jump(tag_54)\n    tag_55:\n      pop\n        /* \"product.sol\":1429:1440  allProducts */\n      dup1\n        /* \"product.sol\":1422:1440  return allProducts */\n      swap2\n      pop\n      pop\n        /* \"product.sol\":1154:1448  function getAllProducts() public view returns (Product[] memory) {... */\n      swap1\n      jump\t// out\n        /* \"product.sol\":735:936  function markProductAsFake(uint256 _id) public{... */\n    tag_19:\n        /* \"product.sol\":823:833  msg.sender */\n      caller\n        /* \"product.sol\":800:833  products[_id].owner == msg.sender */\n      0xffffffffffffffffffffffffffffffffffffffff\n      and\n        /* \"product.sol\":800:808  products */\n      0x00\n        /* \"product.sol\":800:813  products[_id] */\n      dup1\n        /* \"product.sol\":809:812  _id */\n      dup4\n        /* \"product.sol\":800:813  products[_id] */\n      dup2\n      mstore\n      0x20\n      add\n      swap1\n      dup2\n      mstore\n      0x20\n      add\n      0x00\n      keccak256\n        /* \"product.sol\":800:819  products[_id].owner */\n      0x03\n      add\n      0x00\n      swap1\n      sload\n      swap1\n      0x0100\n      exp\n      swap1\n      div\n      0xffffffffffffffffffffffffffffffffffffffff\n      and\n        /* \"product.sol\":800:833  products[_id].owner == msg.sender */\n      0xffffffffffffffffffffffffffffffffffffffff\n      and\n      eq\n        /* \"product.sol\":792:884  require(products[_id].owner == msg.sender, \"Only the product owner can verify authenticity\") */\n      tag_71\n      jumpi\n      mload(0x40)\n      0x08c379a000000000000000000000000000000000000000000000000000000000\n      dup2\n      mstore\n      0x04\n      add\n      tag_72\n      swap1\n      tag_73\n      jump\t// in\n    tag_72:\n      mload(0x40)\n      dup1\n      swap2\n      sub\n      swap1\n      revert\n    tag_71:\n        /* \"product.sol\":923:928  false */\n      0x00\n        /* \"product.sol\":895:903  products */\n      dup1\n        /* \"product.sol\":895:908  products[_id] */\n      0x00\n        /* \"product.sol\":904:907  _id */\n      dup4\n        /* \"product.sol\":895:908  products[_id] */\n      dup2\n      mstore\n      0x20\n      add\n      swap1\n      dup2\n      mstore\n      0x20\n      add\n      0x00\n      keccak256\n        /* \"product.sol\":895:920  products[_id].isAuthentic */\n      0x03\n      add\n      0x14\n        /* \"product.sol\":895:928  products[_id].isAuthentic = false */\n      0x0100\n      exp\n      dup2\n      sload\n      dup2\n      0xff\n      mul\n      not\n      and\n      swap1\n      dup4\n      iszero\n      iszero\n      mul\n      or\n      swap1\n      sstore\n      pop\n        /* \"product.sol\":735:936  function markProductAsFake(uint256 _id) public{... */\n      pop\n      jump\t// out\n        /* \"product.sol\":597:723  function verifyProductAuthenticity(uint256 _id) public view returns (bool) {... */\n    tag_22:\n        /* \"product.sol\":666:670  bool */\n      0x00\n        /* \"product.sol\":690:698  products */\n      dup1\n        /* \"product.sol\":690:703  products[_id] */\n      0x00\n        /* \"product.sol\":699:702  _id */\n      dup4\n        /* \"product.sol\":690:703  products[_id] */\n      dup2\n      mstore\n      0x20\n      add\n      swap1\n      dup2\n      mstore\n      0x20\n      add\n      0x00\n      keccak256\n        /* \"product.sol\":690:715  products[_id].isAuthentic */\n      0x03\n      add\n      0x14\n      swap1\n      sload\n      swap1\n      0x0100\n      exp\n      swap1\n      div\n      0xff\n      and\n        /* \"product.sol\":683:715  return products[_id].isAuthentic */\n      swap1\n      pop\n        /* \"product.sol\":597:723  function verifyProductAuthenticity(uint256 _id) public view returns (bool) {... */\n      swap2\n      swap1\n      pop\n      jump\t// out\n        /* \"product.sol\":243:287  mapping (uint256 => Product) public products */\n    tag_27:\n      mstore(0x20, 0x00)\n      dup1\n      0x00\n      mstore\n      keccak256(0x00, 0x40)\n      0x00\n      swap2\n      pop\n      swap1\n      pop\n      dup1\n      0x00\n      add\n      sload\n      swap1\n      dup1\n      0x01\n      add\n      dup1\n      sload\n      tag_75\n      swap1\n      tag_58\n      jump\t// in\n    tag_75:\n      dup1\n      0x1f\n      add\n      0x20\n      dup1\n      swap2\n      div\n      mul\n      0x20\n      add\n      mload(0x40)\n      swap1\n      dup2\n      add\n      0x40\n      mstore\n      dup1\n      swap3\n      swap2\n      swap1\n      dup2\n      dup2\n      mstore\n      0x20\n      add\n      dup3\n      dup1\n      sload\n      tag_76\n      swap1\n      tag_58\n      jump\t// in\n    tag_76:\n      dup1\n      iszero\n      tag_77\n      jumpi\n      dup1\n      0x1f\n      lt\n      tag_78\n      jumpi\n      0x0100\n      dup1\n      dup4\n      sload\n      div\n      mul\n      dup4\n      mstore\n      swap2\n      0x20\n      add\n      swap2\n      jump(tag_77)\n    tag_78:\n      dup3\n      add\n      swap2\n      swap1\n      0x00\n      mstore\n      keccak256(0x00, 0x20)\n      swap1\n    tag_79:\n      dup2\n      sload\n      dup2\n      mstore\n      swap1\n      0x01\n      add\n      swap1\n      0x20\n      add\n      dup1\n      dup4\n      gt\n      tag_79\n      jumpi\n      dup3\n      swap1\n      sub\n      0x1f\n      and\n      dup3\n      add\n      swap2\n    tag_77:\n      pop\n      pop\n      pop\n      pop\n      pop\n      swap1\n      dup1\n      0x02\n      add\n      sload\n      swap1\n      dup1\n      0x03\n      add\n      0x00\n      swap1\n      sload\n      swap1\n      0x0100\n      exp\n      swap1\n      div\n      0xffffffffffffffffffffffffffffffffffffffff\n      and\n      swap1\n      dup1\n      0x03\n      add\n      0x14\n      swap1\n      sload\n      swap1\n      0x0100\n      exp\n      swap1\n      div\n      0xff\n      and\n      swap1\n      pop\n      dup6\n      jump\t// out\n        /* \"product.sol\":942:1142  function markProductAsReal(uint256 _id) public{... */\n    tag_32:\n        /* \"product.sol\":1030:1040  msg.sender */\n      caller\n        /* \"product.sol\":1007:1040  products[_id].owner == msg.sender */\n      0xffffffffffffffffffffffffffffffffffffffff\n      and\n        /* \"product.sol\":1007:1015  products */\n      0x00\n        /* \"product.sol\":1007:1020  products[_id] */\n      dup1\n        /* \"product.sol\":1016:1019  _id */\n      dup4\n        /* \"product.sol\":1007:1020  products[_id] */\n      dup2\n      mstore\n      0x20\n      add\n      swap1\n      dup2\n      mstore\n      0x20\n      add\n      0x00\n      keccak256\n        /* \"product.sol\":1007:1026  products[_id].owner */\n      0x03\n      add\n      0x00\n      swap1\n      sload\n      swap1\n      0x0100\n      exp\n      swap1\n      div\n      0xffffffffffffffffffffffffffffffffffffffff\n      and\n        /* \"product.sol\":1007:1040  products[_id].owner == msg.sender */\n      0xffffffffffffffffffffffffffffffffffffffff\n      and\n      eq\n        /* \"product.sol\":999:1091  require(products[_id].owner == msg.sender, \"Only the product owner can verify authenticity\") */\n      tag_81\n      jumpi\n      mload(0x40)\n      0x08c379a000000000000000000000000000000000000000000000000000000000\n      dup2\n      mstore\n      0x04\n      add\n      tag_82\n      swap1\n      tag_73\n      jump\t// in\n    tag_82:\n      mload(0x40)\n      dup1\n      swap2\n      sub\n      swap1\n      revert\n    tag_81:\n        /* \"product.sol\":1130:1134  true */\n      0x01\n        /* \"product.sol\":1102:1110  products */\n      0x00\n        /* \"product.sol\":1102:1115  products[_id] */\n      dup1\n        /* \"product.sol\":1111:1114  _id */\n      dup4\n        /* \"product.sol\":1102:1115  products[_id] */\n      dup2\n      mstore\n      0x20\n      add\n      swap1\n      dup2\n      mstore\n      0x20\n      add\n      0x00\n      keccak256\n        /* \"product.sol\":1102:1127  products[_id].isAuthentic */\n      0x03\n      add\n      0x14\n        /* \"product.sol\":1102:1134  products[_id].isAuthentic = true */\n      0x0100\n      exp\n      dup2\n      sload\n      dup2\n      0xff\n      mul\n      not\n      and\n      swap1\n      dup4\n      iszero\n      iszero\n      mul\n      or\n      swap1\n      sstore\n      pop\n        /* \"product.sol\":942:1142  function markProductAsReal(uint256 _id) public{... */\n      pop\n      jump\t// out\n        /* \"product.sol\":1460:1569  function getProduct(uint256 _id) public view returns (Product memory) {... */\n    tag_35:\n        /* \"product.sol\":1514:1528  Product memory */\n      tag_83\n      tag_53\n      jump\t// in\n    tag_83:\n        /* \"product.sol\":1548:1556  products */\n      0x00\n        /* \"product.sol\":1548:1561  products[_id] */\n      dup1\n        /* \"product.sol\":1557:1560  _id */\n      dup4\n        /* \"product.sol\":1548:1561  products[_id] */\n      dup2\n      mstore\n      0x20\n      add\n      swap1\n      dup2\n      mstore\n      0x20\n      add\n      0x00\n      keccak256\n        /* \"product.sol\":1541:1561  return products[_id] */\n      mload(0x40)\n      dup1\n      0xa0\n      add\n      0x40\n      mstore\n      swap1\n      dup2\n      0x00\n      dup3\n      add\n      sload\n      dup2\n      mstore\n      0x20\n      add\n      0x01\n      dup3\n      add\n      dup1\n      sload\n      tag_85\n      swap1\n      tag_58\n      jump\t// in\n    tag_85:\n      dup1\n      0x1f\n      add\n      0x20\n      dup1\n      swap2\n      div\n      mul\n      0x20\n      add\n      mload(0x40)\n      swap1\n      dup2\n      add\n      0x40\n      mstore\n      dup1\n      swap3\n      swap2\n      swap1\n      dup2\n      dup2\n      mstore\n      0x20\n      add\n      dup3\n      dup1\n      sload\n      tag_86\n      swap1\n      tag_58\n      jump\t// in\n    tag_86:\n      dup1\n      iszero\n      tag_87\n      jumpi\n      dup1\n      0x1f\n      lt\n      tag_88\n      jumpi\n      0x0100\n      dup1\n      dup4\n      sload\n      div\n      mul\n      dup4\n      mstore\n      swap2\n      0x20\n      add\n      swap2\n      jump(tag_87)\n    tag_88:\n      dup3\n      add\n      swap2\n      swap1\n      0x00\n      mstore\n      keccak256(0x00, 0x20)\n      swap1\n    tag_89:\n      dup2\n      sload\n      dup2\n      mstore\n      swap1\n      0x01\n      add\n      swap1\n      0x20\n      add\n      dup1\n      dup4\n      gt\n      tag_89\n      jumpi\n      dup3\n      swap1\n      sub\n      0x1f\n      and\n      dup3\n      add\n      swap2\n    tag_87:\n      pop\n      pop\n      pop\n      pop\n      pop\n      dup2\n      mstore\n      0x20\n      add\n      0x02\n      dup3\n      add\n      sload\n      dup2\n      mstore\n      0x20\n      add\n      0x03\n      dup3\n      add\n      0x00\n      swap1\n      sload\n      swap1\n      0x0100\n      exp\n      swap1\n      div\n      0xffffffffffffffffffffffffffffffffffffffff\n      and\n      0xffffffffffffffffffffffffffffffffffffffff\n      and\n      0xffffffffffffffffffffffffffffffffffffffff\n      and\n      dup2\n      mstore\n      0x20\n      add\n      0x03\n      dup3\n      add\n      0x14\n      swap1\n      sload\n      swap1\n      0x0100\n      exp\n      swap1\n      div\n      0xff\n      and\n      iszero\n      iszero\n      iszero\n      iszero\n      dup2\n      mstore\n      pop\n      pop\n      swap1\n      pop\n        /* \"product.sol\":1460:1569  function getProduct(uint256 _id) public view returns (Product memory) {... */\n      swap2\n      swap1\n      pop\n      jump\t// out\n        /* \"product.sol\":294:321  uint256 public productCount */\n    tag_39:\n      sload(0x01)\n      dup2\n      jump\t// out\n        /* \"product.sol\":395:585  function createProduct(string memory _name, uint256 _price) public {... */\n    tag_45:\n        /* \"product.sol\":473:485  productCount */\n      0x01\n      0x00\n        /* \"product.sol\":473:487  productCount++ */\n      dup2\n      sload\n      dup1\n      swap3\n      swap2\n      swap1\n      tag_91\n      swap1\n      tag_69\n      jump\t// in\n    tag_91:\n      swap2\n      swap1\n      pop\n      sstore\n      pop\n        /* \"product.sol\":523:577  Product(productCount, _name, _price, msg.sender, true) */\n      mload(0x40)\n      dup1\n      0xa0\n      add\n      0x40\n      mstore\n      dup1\n        /* \"product.sol\":531:543  productCount */\n      sload(0x01)\n        /* \"product.sol\":523:577  Product(productCount, _name, _price, msg.sender, true) */\n      dup2\n      mstore\n      0x20\n      add\n        /* \"product.sol\":545:550  _name */\n      dup4\n        /* \"product.sol\":523:577  Product(productCount, _name, _price, msg.sender, true) */\n      dup2\n      mstore\n      0x20\n      add\n        /* \"product.sol\":552:558  _price */\n      dup3\n        /* \"product.sol\":523:577  Product(productCount, _name, _price, msg.sender, true) */\n      dup2\n      mstore\n      0x20\n      add\n        /* \"product.sol\":560:570  msg.sender */\n      caller\n        /* \"product.sol\":523:577  Product(productCount, _name, _price, msg.sender, true) */\n      0xffffffffffffffffffffffffffffffffffffffff\n      and\n      dup2\n      mstore\n      0x20\n      add\n        /* \"product.sol\":572:576  true */\n      0x01\n        /* \"product.sol\":523:577  Product(productCount, _name, _price, msg.sender, true) */\n      iszero\n      iszero\n      dup2\n      mstore\n      pop\n        /* \"product.sol\":498:506  products */\n      0x00\n        /* \"product.sol\":498:520  products[productCount] */\n      dup1\n        /* \"product.sol\":507:519  productCount */\n      sload(0x01)\n        /* \"product.sol\":498:520  products[productCount] */\n      dup2\n      mstore\n      0x20\n      add\n      swap1\n      dup2\n      mstore\n      0x20\n      add\n      0x00\n      keccak256\n        /* \"product.sol\":498:577  products[productCount] = Product(productCount, _name, _price, msg.sender, true) */\n      0x00\n      dup3\n      add\n      mload\n      dup2\n      0x00\n      add\n      sstore\n      0x20\n      dup3\n      add\n      mload\n      dup2\n      0x01\n      add\n      swap1\n      dup2\n      tag_92\n      swap2\n      swap1\n      tag_93\n      jump\t// in\n    tag_92:\n      pop\n      0x40\n      dup3\n      add\n      mload\n      dup2\n      0x02\n      add\n      sstore\n      0x60\n      dup3\n      add\n      mload\n      dup2\n      0x03\n      add\n      exp(0x0100, 0x00)\n      dup2\n      sload\n      dup2\n      0xffffffffffffffffffffffffffffffffffffffff\n      mul\n      not\n      and\n      swap1\n      dup4\n      0xffffffffffffffffffffffffffffffffffffffff\n      and\n      mul\n      or\n      swap1\n      sstore\n      pop\n      0x80\n      dup3\n      add\n      mload\n      dup2\n      0x03\n      add\n      exp(0x0100, 0x14)\n      dup2\n      sload\n      dup2\n      0xff\n      mul\n      not\n      and\n      swap1\n      dup4\n      iszero\n      iszero\n      mul\n      or\n      swap1\n      sstore\n      pop\n      swap1\n      pop\n      pop\n        /* \"product.sol\":395:585  function createProduct(string memory _name, uint256 _price) public {... */\n      pop\n      pop\n      jump\t// out\n    tag_53:\n      mload(0x40)\n      dup1\n      0xa0\n      add\n      0x40\n      mstore\n      dup1\n      0x00\n      dup2\n      mstore\n      0x20\n      add\n      0x60\n      dup2\n      mstore\n      0x20\n      add\n      0x00\n      dup2\n      mstore\n      0x20\n      add\n      and(0xffffffffffffffffffffffffffffffffffffffff, 0x00)\n      dup2\n      mstore\n      0x20\n      add\n      iszero(iszero(0x00))\n      dup2\n      mstore\n      pop\n      swap1\n      jump\t// out\n        /* \"#utility.yul\":7:144   */\n    tag_94:\n        /* \"#utility.yul\":97:103   */\n      0x00\n        /* \"#utility.yul\":131:136   */\n      dup2\n        /* \"#utility.yul\":125:137   */\n      mload\n        /* \"#utility.yul\":115:137   */\n      swap1\n      pop\n        /* \"#utility.yul\":7:144   */\n      swap2\n      swap1\n      pop\n      jump\t// out\n        /* \"#utility.yul\":150:357   */\n    tag_95:\n        /* \"#utility.yul\":272:283   */\n      0x00\n        /* \"#utility.yul\":306:312   */\n      dup3\n        /* \"#utility.yul\":301:304   */\n      dup3\n        /* \"#utility.yul\":294:313   */\n      mstore\n        /* \"#utility.yul\":346:350   */\n      0x20\n        /* \"#utility.yul\":341:344   */\n      dup3\n        /* \"#utility.yul\":337:351   */\n      add\n        /* \"#utility.yul\":322:351   */\n      swap1\n      pop\n        /* \"#utility.yul\":150:357   */\n      swap3\n      swap2\n      pop\n      pop\n      jump\t// out\n        /* \"#utility.yul\":363:518   */\n    tag_96:\n        /* \"#utility.yul\":453:457   */\n      0x00\n        /* \"#utility.yul\":476:479   */\n      dup2\n        /* \"#utility.yul\":468:479   */\n      swap1\n      pop\n        /* \"#utility.yul\":506:510   */\n      0x20\n        /* \"#utility.yul\":501:504   */\n      dup3\n        /* \"#utility.yul\":497:511   */\n      add\n        /* \"#utility.yul\":489:511   */\n      swap1\n      pop\n        /* \"#utility.yul\":363:518   */\n      swap2\n      swap1\n      pop\n      jump\t// out\n        /* \"#utility.yul\":524:601   */\n    tag_97:\n        /* \"#utility.yul\":561:568   */\n      0x00\n        /* \"#utility.yul\":590:595   */\n      dup2\n        /* \"#utility.yul\":579:595   */\n      swap1\n      pop\n        /* \"#utility.yul\":524:601   */\n      swap2\n      swap1\n      pop\n      jump\t// out\n        /* \"#utility.yul\":607:715   */\n    tag_98:\n        /* \"#utility.yul\":684:708   */\n      tag_157\n        /* \"#utility.yul\":702:707   */\n      dup2\n        /* \"#utility.yul\":684:708   */\n      tag_97\n      jump\t// in\n    tag_157:\n        /* \"#utility.yul\":679:682   */\n      dup3\n        /* \"#utility.yul\":672:709   */\n      mstore\n        /* \"#utility.yul\":607:715   */\n      pop\n      pop\n      jump\t// out\n        /* \"#utility.yul\":721:820   */\n    tag_99:\n        /* \"#utility.yul\":773:779   */\n      0x00\n        /* \"#utility.yul\":807:812   */\n      dup2\n        /* \"#utility.yul\":801:813   */\n      mload\n        /* \"#utility.yul\":791:813   */\n      swap1\n      pop\n        /* \"#utility.yul\":721:820   */\n      swap2\n      swap1\n      pop\n      jump\t// out\n        /* \"#utility.yul\":826:985   */\n    tag_100:\n        /* \"#utility.yul\":900:911   */\n      0x00\n        /* \"#utility.yul\":934:940   */\n      dup3\n        /* \"#utility.yul\":929:932   */\n      dup3\n        /* \"#utility.yul\":922:941   */\n      mstore\n        /* \"#utility.yul\":974:978   */\n      0x20\n        /* \"#utility.yul\":969:972   */\n      dup3\n        /* \"#utility.yul\":965:979   */\n      add\n        /* \"#utility.yul\":950:979   */\n      swap1\n      pop\n        /* \"#utility.yul\":826:985   */\n      swap3\n      swap2\n      pop\n      pop\n      jump\t// out\n        /* \"#utility.yul\":991:1237   */\n    tag_101:\n        /* \"#utility.yul\":1072:1073   */\n      0x00\n        /* \"#utility.yul\":1082:1195   */\n    tag_161:\n        /* \"#utility.yul\":1096:1102   */\n      dup4\n        /* \"#utility.yul\":1093:1094   */\n      dup2\n        /* \"#utility.yul\":1090:1103   */\n      lt\n        /* \"#utility.yul\":1082:1195   */\n      iszero\n      tag_163\n      jumpi\n        /* \"#utility.yul\":1181:1182   */\n      dup1\n        /* \"#utility.yul\":1176:1179   */\n      dup3\n        /* \"#utility.yul\":1172:1183   */\n      add\n        /* \"#utility.yul\":1166:1184   */\n      mload\n        /* \"#utility.yul\":1162:1163   */\n      dup2\n        /* \"#utility.yul\":1157:1160   */\n      dup5\n        /* \"#utility.yul\":1153:1164   */\n      add\n        /* \"#utility.yul\":1146:1185   */\n      mstore\n        /* \"#utility.yul\":1118:1120   */\n      0x20\n        /* \"#utility.yul\":1115:1116   */\n      dup2\n        /* \"#utility.yul\":1111:1121   */\n      add\n        /* \"#utility.yul\":1106:1121   */\n      swap1\n      pop\n        /* \"#utility.yul\":1082:1195   */\n      jump(tag_161)\n    tag_163:\n        /* \"#utility.yul\":1229:1230   */\n      0x00\n        /* \"#utility.yul\":1220:1226   */\n      dup5\n        /* \"#utility.yul\":1215:1218   */\n      dup5\n        /* \"#utility.yul\":1211:1227   */\n      add\n        /* \"#utility.yul\":1204:1231   */\n      mstore\n        /* \"#utility.yul\":1053:1237   */\n      pop\n        /* \"#utility.yul\":991:1237   */\n      pop\n      pop\n      pop\n      jump\t// out\n        /* \"#utility.yul\":1243:1345   */\n    tag_102:\n        /* \"#utility.yul\":1284:1290   */\n      0x00\n        /* \"#utility.yul\":1335:1337   */\n      0x1f\n        /* \"#utility.yul\":1331:1338   */\n      not\n        /* \"#utility.yul\":1326:1328   */\n      0x1f\n        /* \"#utility.yul\":1319:1324   */\n      dup4\n        /* \"#utility.yul\":1315:1329   */\n      add\n        /* \"#utility.yul\":1311:1339   */\n      and\n        /* \"#utility.yul\":1301:1339   */\n      swap1\n      pop\n        /* \"#utility.yul\":1243:1345   */\n      swap2\n      swap1\n      pop\n      jump\t// out\n        /* \"#utility.yul\":1351:1708   */\n    tag_103:\n        /* \"#utility.yul\":1429:1432   */\n      0x00\n        /* \"#utility.yul\":1457:1496   */\n      tag_166\n        /* \"#utility.yul\":1490:1495   */\n      dup3\n        /* \"#utility.yul\":1457:1496   */\n      tag_99\n      jump\t// in\n    tag_166:\n        /* \"#utility.yul\":1512:1573   */\n      tag_167\n        /* \"#utility.yul\":1566:1572   */\n      dup2\n        /* \"#utility.yul\":1561:1564   */\n      dup6\n        /* \"#utility.yul\":1512:1573   */\n      tag_100\n      jump\t// in\n    tag_167:\n        /* \"#utility.yul\":1505:1573   */\n      swap4\n      pop\n        /* \"#utility.yul\":1582:1647   */\n      tag_168\n        /* \"#utility.yul\":1640:1646   */\n      dup2\n        /* \"#utility.yul\":1635:1638   */\n      dup6\n        /* \"#utility.yul\":1628:1632   */\n      0x20\n        /* \"#utility.yul\":1621:1626   */\n      dup7\n        /* \"#utility.yul\":1617:1633   */\n      add\n        /* \"#utility.yul\":1582:1647   */\n      tag_101\n      jump\t// in\n    tag_168:\n        /* \"#utility.yul\":1672:1701   */\n      tag_169\n        /* \"#utility.yul\":1694:1700   */\n      dup2\n        /* \"#utility.yul\":1672:1701   */\n      tag_102\n      jump\t// in\n    tag_169:\n        /* \"#utility.yul\":1667:1670   */\n      dup5\n        /* \"#utility.yul\":1663:1702   */\n      add\n        /* \"#utility.yul\":1656:1702   */\n      swap2\n      pop\n        /* \"#utility.yul\":1433:1708   */\n      pop\n        /* \"#utility.yul\":1351:1708   */\n      swap3\n      swap2\n      pop\n      pop\n      jump\t// out\n        /* \"#utility.yul\":1714:1840   */\n    tag_104:\n        /* \"#utility.yul\":1751:1758   */\n      0x00\n        /* \"#utility.yul\":1791:1833   */\n      0xffffffffffffffffffffffffffffffffffffffff\n        /* \"#utility.yul\":1784:1789   */\n      dup3\n        /* \"#utility.yul\":1780:1834   */\n      and\n        /* \"#utility.yul\":1769:1834   */\n      swap1\n      pop\n        /* \"#utility.yul\":1714:1840   */\n      swap2\n      swap1\n      pop\n      jump\t// out\n        /* \"#utility.yul\":1846:1942   */\n    tag_105:\n        /* \"#utility.yul\":1883:1890   */\n      0x00\n        /* \"#utility.yul\":1912:1936   */\n      tag_172\n        /* \"#utility.yul\":1930:1935   */\n      dup3\n        /* \"#utility.yul\":1912:1936   */\n      tag_104\n      jump\t// in\n    tag_172:\n        /* \"#utility.yul\":1901:1936   */\n      swap1\n      pop\n        /* \"#utility.yul\":1846:1942   */\n      swap2\n      swap1\n      pop\n      jump\t// out\n        /* \"#utility.yul\":1948:2056   */\n    tag_106:\n        /* \"#utility.yul\":2025:2049   */\n      tag_174\n        /* \"#utility.yul\":2043:2048   */\n      dup2\n        /* \"#utility.yul\":2025:2049   */\n      tag_105\n      jump\t// in\n    tag_174:\n        /* \"#utility.yul\":2020:2023   */\n      dup3\n        /* \"#utility.yul\":2013:2050   */\n      mstore\n        /* \"#utility.yul\":1948:2056   */\n      pop\n      pop\n      jump\t// out\n        /* \"#utility.yul\":2062:2152   */\n    tag_107:\n        /* \"#utility.yul\":2096:2103   */\n      0x00\n        /* \"#utility.yul\":2139:2144   */\n      dup2\n        /* \"#utility.yul\":2132:2145   */\n      iszero\n        /* \"#utility.yul\":2125:2146   */\n      iszero\n        /* \"#utility.yul\":2114:2146   */\n      swap1\n      pop\n        /* \"#utility.yul\":2062:2152   */\n      swap2\n      swap1\n      pop\n      jump\t// out\n        /* \"#utility.yul\":2158:2257   */\n    tag_108:\n        /* \"#utility.yul\":2229:2250   */\n      tag_177\n        /* \"#utility.yul\":2244:2249   */\n      dup2\n        /* \"#utility.yul\":2229:2250   */\n      tag_107\n      jump\t// in\n    tag_177:\n        /* \"#utility.yul\":2224:2227   */\n      dup3\n        /* \"#utility.yul\":2217:2251   */\n      mstore\n        /* \"#utility.yul\":2158:2257   */\n      pop\n      pop\n      jump\t// out\n        /* \"#utility.yul\":2319:3434   */\n    tag_109:\n        /* \"#utility.yul\":2424:2427   */\n      0x00\n        /* \"#utility.yul\":2460:2464   */\n      0xa0\n        /* \"#utility.yul\":2455:2458   */\n      dup4\n        /* \"#utility.yul\":2451:2465   */\n      add\n        /* \"#utility.yul\":2545:2549   */\n      0x00\n        /* \"#utility.yul\":2538:2543   */\n      dup4\n        /* \"#utility.yul\":2534:2550   */\n      add\n        /* \"#utility.yul\":2528:2551   */\n      mload\n        /* \"#utility.yul\":2564:2627   */\n      tag_179\n        /* \"#utility.yul\":2621:2625   */\n      0x00\n        /* \"#utility.yul\":2616:2619   */\n      dup7\n        /* \"#utility.yul\":2612:2626   */\n      add\n        /* \"#utility.yul\":2598:2610   */\n      dup3\n        /* \"#utility.yul\":2564:2627   */\n      tag_98\n      jump\t// in\n    tag_179:\n        /* \"#utility.yul\":2475:2637   */\n      pop\n        /* \"#utility.yul\":2719:2723   */\n      0x20\n        /* \"#utility.yul\":2712:2717   */\n      dup4\n        /* \"#utility.yul\":2708:2724   */\n      add\n        /* \"#utility.yul\":2702:2725   */\n      mload\n        /* \"#utility.yul\":2772:2775   */\n      dup5\n        /* \"#utility.yul\":2766:2770   */\n      dup3\n        /* \"#utility.yul\":2762:2776   */\n      sub\n        /* \"#utility.yul\":2755:2759   */\n      0x20\n        /* \"#utility.yul\":2750:2753   */\n      dup7\n        /* \"#utility.yul\":2746:2760   */\n      add\n        /* \"#utility.yul\":2739:2777   */\n      mstore\n        /* \"#utility.yul\":2798:2871   */\n      tag_180\n        /* \"#utility.yul\":2866:2870   */\n      dup3\n        /* \"#utility.yul\":2852:2864   */\n      dup3\n        /* \"#utility.yul\":2798:2871   */\n      tag_103\n      jump\t// in\n    tag_180:\n        /* \"#utility.yul\":2790:2871   */\n      swap2\n      pop\n        /* \"#utility.yul\":2647:2882   */\n      pop\n        /* \"#utility.yul\":2965:2969   */\n      0x40\n        /* \"#utility.yul\":2958:2963   */\n      dup4\n        /* \"#utility.yul\":2954:2970   */\n      add\n        /* \"#utility.yul\":2948:2971   */\n      mload\n        /* \"#utility.yul\":2984:3047   */\n      tag_181\n        /* \"#utility.yul\":3041:3045   */\n      0x40\n        /* \"#utility.yul\":3036:3039   */\n      dup7\n        /* \"#utility.yul\":3032:3046   */\n      add\n        /* \"#utility.yul\":3018:3030   */\n      dup3\n        /* \"#utility.yul\":2984:3047   */\n      tag_98\n      jump\t// in\n    tag_181:\n        /* \"#utility.yul\":2892:3057   */\n      pop\n        /* \"#utility.yul\":3140:3144   */\n      0x60\n        /* \"#utility.yul\":3133:3138   */\n      dup4\n        /* \"#utility.yul\":3129:3145   */\n      add\n        /* \"#utility.yul\":3123:3146   */\n      mload\n        /* \"#utility.yul\":3159:3222   */\n      tag_182\n        /* \"#utility.yul\":3216:3220   */\n      0x60\n        /* \"#utility.yul\":3211:3214   */\n      dup7\n        /* \"#utility.yul\":3207:3221   */\n      add\n        /* \"#utility.yul\":3193:3205   */\n      dup3\n        /* \"#utility.yul\":3159:3222   */\n      tag_106\n      jump\t// in\n    tag_182:\n        /* \"#utility.yul\":3067:3232   */\n      pop\n        /* \"#utility.yul\":3321:3325   */\n      0x80\n        /* \"#utility.yul\":3314:3319   */\n      dup4\n        /* \"#utility.yul\":3310:3326   */\n      add\n        /* \"#utility.yul\":3304:3327   */\n      mload\n        /* \"#utility.yul\":3340:3397   */\n      tag_183\n        /* \"#utility.yul\":3391:3395   */\n      0x80\n        /* \"#utility.yul\":3386:3389   */\n      dup7\n        /* \"#utility.yul\":3382:3396   */\n      add\n        /* \"#utility.yul\":3368:3380   */\n      dup3\n        /* \"#utility.yul\":3340:3397   */\n      tag_108\n      jump\t// in\n    tag_183:\n        /* \"#utility.yul\":3242:3407   */\n      pop\n        /* \"#utility.yul\":3424:3428   */\n      dup1\n        /* \"#utility.yul\":3417:3428   */\n      swap2\n      pop\n        /* \"#utility.yul\":2429:3434   */\n      pop\n        /* \"#utility.yul\":2319:3434   */\n      swap3\n      swap2\n      pop\n      pop\n      jump\t// out\n        /* \"#utility.yul\":3440:3688   */\n    tag_110:\n        /* \"#utility.yul\":3555:3565   */\n      0x00\n        /* \"#utility.yul\":3590:3682   */\n      tag_185\n        /* \"#utility.yul\":3678:3681   */\n      dup4\n        /* \"#utility.yul\":3670:3676   */\n      dup4\n        /* \"#utility.yul\":3590:3682   */\n      tag_109\n      jump\t// in\n    tag_185:\n        /* \"#utility.yul\":3576:3682   */\n      swap1\n      pop\n        /* \"#utility.yul\":3440:3688   */\n      swap3\n      swap2\n      pop\n      pop\n      jump\t// out\n        /* \"#utility.yul\":3694:3830   */\n    tag_111:\n        /* \"#utility.yul\":3787:3791   */\n      0x00\n        /* \"#utility.yul\":3819:3823   */\n      0x20\n        /* \"#utility.yul\":3814:3817   */\n      dup3\n        /* \"#utility.yul\":3810:3824   */\n      add\n        /* \"#utility.yul\":3802:3824   */\n      swap1\n      pop\n        /* \"#utility.yul\":3694:3830   */\n      swap2\n      swap1\n      pop\n      jump\t// out\n        /* \"#utility.yul\":3896:4991   */\n    tag_112:\n        /* \"#utility.yul\":4061:4064   */\n      0x00\n        /* \"#utility.yul\":4090:4167   */\n      tag_188\n        /* \"#utility.yul\":4161:4166   */\n      dup3\n        /* \"#utility.yul\":4090:4167   */\n      tag_94\n      jump\t// in\n    tag_188:\n        /* \"#utility.yul\":4183:4292   */\n      tag_189\n        /* \"#utility.yul\":4285:4291   */\n      dup2\n        /* \"#utility.yul\":4280:4283   */\n      dup6\n        /* \"#utility.yul\":4183:4292   */\n      tag_95\n      jump\t// in\n    tag_189:\n        /* \"#utility.yul\":4176:4292   */\n      swap4\n      pop\n        /* \"#utility.yul\":4318:4321   */\n      dup4\n        /* \"#utility.yul\":4363:4367   */\n      0x20\n        /* \"#utility.yul\":4355:4361   */\n      dup3\n        /* \"#utility.yul\":4351:4368   */\n      mul\n        /* \"#utility.yul\":4346:4349   */\n      dup6\n        /* \"#utility.yul\":4342:4369   */\n      add\n        /* \"#utility.yul\":4393:4472   */\n      tag_190\n        /* \"#utility.yul\":4466:4471   */\n      dup6\n        /* \"#utility.yul\":4393:4472   */\n      tag_96\n      jump\t// in\n    tag_190:\n        /* \"#utility.yul\":4495:4502   */\n      dup1\n        /* \"#utility.yul\":4526:4527   */\n      0x00\n        /* \"#utility.yul\":4511:4946   */\n    tag_191:\n        /* \"#utility.yul\":4536:4542   */\n      dup6\n        /* \"#utility.yul\":4533:4534   */\n      dup2\n        /* \"#utility.yul\":4530:4543   */\n      lt\n        /* \"#utility.yul\":4511:4946   */\n      iszero\n      tag_193\n      jumpi\n        /* \"#utility.yul\":4607:4616   */\n      dup5\n        /* \"#utility.yul\":4601:4605   */\n      dup5\n        /* \"#utility.yul\":4597:4617   */\n      sub\n        /* \"#utility.yul\":4592:4595   */\n      dup10\n        /* \"#utility.yul\":4585:4618   */\n      mstore\n        /* \"#utility.yul\":4658:4664   */\n      dup2\n        /* \"#utility.yul\":4652:4665   */\n      mload\n        /* \"#utility.yul\":4686:4796   */\n      tag_194\n        /* \"#utility.yul\":4791:4795   */\n      dup6\n        /* \"#utility.yul\":4776:4789   */\n      dup3\n        /* \"#utility.yul\":4686:4796   */\n      tag_110\n      jump\t// in\n    tag_194:\n        /* \"#utility.yul\":4678:4796   */\n      swap5\n      pop\n        /* \"#utility.yul\":4819:4902   */\n      tag_195\n        /* \"#utility.yul\":4895:4901   */\n      dup4\n        /* \"#utility.yul\":4819:4902   */\n      tag_111\n      jump\t// in\n    tag_195:\n        /* \"#utility.yul\":4809:4902   */\n      swap3\n      pop\n        /* \"#utility.yul\":4931:4935   */\n      0x20\n        /* \"#utility.yul\":4926:4929   */\n      dup11\n        /* \"#utility.yul\":4922:4936   */\n      add\n        /* \"#utility.yul\":4915:4936   */\n      swap10\n      pop\n        /* \"#utility.yul\":4571:4946   */\n      pop\n        /* \"#utility.yul\":4558:4559   */\n      0x01\n        /* \"#utility.yul\":4555:4556   */\n      dup2\n        /* \"#utility.yul\":4551:4560   */\n      add\n        /* \"#utility.yul\":4546:4560   */\n      swap1\n      pop\n        /* \"#utility.yul\":4511:4946   */\n      jump(tag_191)\n    tag_193:\n        /* \"#utility.yul\":4515:4529   */\n      pop\n        /* \"#utility.yul\":4962:4966   */\n      dup3\n        /* \"#utility.yul\":4955:4966   */\n      swap8\n      pop\n        /* \"#utility.yul\":4982:4985   */\n      dup8\n        /* \"#utility.yul\":4975:4985   */\n      swap6\n      pop\n        /* \"#utility.yul\":4066:4991   */\n      pop\n      pop\n      pop\n      pop\n      pop\n        /* \"#utility.yul\":3896:4991   */\n      swap3\n      swap2\n      pop\n      pop\n      jump\t// out\n        /* \"#utility.yul\":4997:5462   */\n    tag_15:\n        /* \"#utility.yul\":5186:5190   */\n      0x00\n        /* \"#utility.yul\":5224:5226   */\n      0x20\n        /* \"#utility.yul\":5213:5222   */\n      dup3\n        /* \"#utility.yul\":5209:5227   */\n      add\n        /* \"#utility.yul\":5201:5227   */\n      swap1\n      pop\n        /* \"#utility.yul\":5273:5282   */\n      dup2\n        /* \"#utility.yul\":5267:5271   */\n      dup2\n        /* \"#utility.yul\":5263:5283   */\n      sub\n        /* \"#utility.yul\":5259:5260   */\n      0x00\n        /* \"#utility.yul\":5248:5257   */\n      dup4\n        /* \"#utility.yul\":5244:5261   */\n      add\n        /* \"#utility.yul\":5237:5284   */\n      mstore\n        /* \"#utility.yul\":5301:5455   */\n      tag_197\n        /* \"#utility.yul\":5450:5454   */\n      dup2\n        /* \"#utility.yul\":5441:5447   */\n      dup5\n        /* \"#utility.yul\":5301:5455   */\n      tag_112\n      jump\t// in\n    tag_197:\n        /* \"#utility.yul\":5293:5455   */\n      swap1\n      pop\n        /* \"#utility.yul\":4997:5462   */\n      swap3\n      swap2\n      pop\n      pop\n      jump\t// out\n        /* \"#utility.yul\":5468:5543   */\n    tag_113:\n        /* \"#utility.yul\":5501:5507   */\n      0x00\n        /* \"#utility.yul\":5534:5536   */\n      0x40\n        /* \"#utility.yul\":5528:5537   */\n      mload\n        /* \"#utility.yul\":5518:5537   */\n      swap1\n      pop\n        /* \"#utility.yul\":5468:5543   */\n      swap1\n      jump\t// out\n        /* \"#utility.yul\":5549:5666   */\n    tag_114:\n        /* \"#utility.yul\":5658:5659   */\n      0x00\n        /* \"#utility.yul\":5655:5656   */\n      dup1\n        /* \"#utility.yul\":5648:5660   */\n      revert\n        /* \"#utility.yul\":5672:5789   */\n    tag_115:\n        /* \"#utility.yul\":5781:5782   */\n      0x00\n        /* \"#utility.yul\":5778:5779   */\n      dup1\n        /* \"#utility.yul\":5771:5783   */\n      revert\n        /* \"#utility.yul\":5795:5917   */\n    tag_116:\n        /* \"#utility.yul\":5868:5892   */\n      tag_202\n        /* \"#utility.yul\":5886:5891   */\n      dup2\n        /* \"#utility.yul\":5868:5892   */\n      tag_97\n      jump\t// in\n    tag_202:\n        /* \"#utility.yul\":5861:5866   */\n      dup2\n        /* \"#utility.yul\":5858:5893   */\n      eq\n        /* \"#utility.yul\":5848:5911   */\n      tag_203\n      jumpi\n        /* \"#utility.yul\":5907:5908   */\n      0x00\n        /* \"#utility.yul\":5904:5905   */\n      dup1\n        /* \"#utility.yul\":5897:5909   */\n      revert\n        /* \"#utility.yul\":5848:5911   */\n    tag_203:\n        /* \"#utility.yul\":5795:5917   */\n      pop\n      jump\t// out\n        /* \"#utility.yul\":5923:6062   */\n    tag_117:\n        /* \"#utility.yul\":5969:5974   */\n      0x00\n        /* \"#utility.yul\":6007:6013   */\n      dup2\n        /* \"#utility.yul\":5994:6014   */\n      calldataload\n        /* \"#utility.yul\":5985:6014   */\n      swap1\n      pop\n        /* \"#utility.yul\":6023:6056   */\n      tag_205\n        /* \"#utility.yul\":6050:6055   */\n      dup2\n        /* \"#utility.yul\":6023:6056   */\n      tag_116\n      jump\t// in\n    tag_205:\n        /* \"#utility.yul\":5923:6062   */\n      swap3\n      swap2\n      pop\n      pop\n      jump\t// out\n        /* \"#utility.yul\":6068:6397   */\n    tag_18:\n        /* \"#utility.yul\":6127:6133   */\n      0x00\n        /* \"#utility.yul\":6176:6178   */\n      0x20\n        /* \"#utility.yul\":6164:6173   */\n      dup3\n        /* \"#utility.yul\":6155:6162   */\n      dup5\n        /* \"#utility.yul\":6151:6174   */\n      sub\n        /* \"#utility.yul\":6147:6179   */\n      slt\n        /* \"#utility.yul\":6144:6263   */\n      iszero\n      tag_207\n      jumpi\n        /* \"#utility.yul\":6182:6261   */\n      tag_208\n      tag_114\n      jump\t// in\n    tag_208:\n        /* \"#utility.yul\":6144:6263   */\n    tag_207:\n        /* \"#utility.yul\":6302:6303   */\n      0x00\n        /* \"#utility.yul\":6327:6380   */\n      tag_209\n        /* \"#utility.yul\":6372:6379   */\n      dup5\n        /* \"#utility.yul\":6363:6369   */\n      dup3\n        /* \"#utility.yul\":6352:6361   */\n      dup6\n        /* \"#utility.yul\":6348:6370   */\n      add\n        /* \"#utility.yul\":6327:6380   */\n      tag_117\n      jump\t// in\n    tag_209:\n        /* \"#utility.yul\":6317:6380   */\n      swap2\n      pop\n        /* \"#utility.yul\":6273:6390   */\n      pop\n        /* \"#utility.yul\":6068:6397   */\n      swap3\n      swap2\n      pop\n      pop\n      jump\t// out\n        /* \"#utility.yul\":6403:6512   */\n    tag_118:\n        /* \"#utility.yul\":6484:6505   */\n      tag_211\n        /* \"#utility.yul\":6499:6504   */\n      dup2\n        /* \"#utility.yul\":6484:6505   */\n      tag_107\n      jump\t// in\n    tag_211:\n        /* \"#utility.yul\":6479:6482   */\n      dup3\n        /* \"#utility.yul\":6472:6506   */\n      mstore\n        /* \"#utility.yul\":6403:6512   */\n      pop\n      pop\n      jump\t// out\n        /* \"#utility.yul\":6518:6728   */\n    tag_24:\n        /* \"#utility.yul\":6605:6609   */\n      0x00\n        /* \"#utility.yul\":6643:6645   */\n      0x20\n        /* \"#utility.yul\":6632:6641   */\n      dup3\n        /* \"#utility.yul\":6628:6646   */\n      add\n        /* \"#utility.yul\":6620:6646   */\n      swap1\n      pop\n        /* \"#utility.yul\":6656:6721   */\n      tag_213\n        /* \"#utility.yul\":6718:6719   */\n      0x00\n        /* \"#utility.yul\":6707:6716   */\n      dup4\n        /* \"#utility.yul\":6703:6720   */\n      add\n        /* \"#utility.yul\":6694:6700   */\n      dup5\n        /* \"#utility.yul\":6656:6721   */\n      tag_118\n      jump\t// in\n    tag_213:\n        /* \"#utility.yul\":6518:6728   */\n      swap3\n      swap2\n      pop\n      pop\n      jump\t// out\n        /* \"#utility.yul\":6734:6852   */\n    tag_119:\n        /* \"#utility.yul\":6821:6845   */\n      tag_215\n        /* \"#utility.yul\":6839:6844   */\n      dup2\n        /* \"#utility.yul\":6821:6845   */\n      tag_97\n      jump\t// in\n    tag_215:\n        /* \"#utility.yul\":6816:6819   */\n      dup3\n        /* \"#utility.yul\":6809:6846   */\n      mstore\n        /* \"#utility.yul\":6734:6852   */\n      pop\n      pop\n      jump\t// out\n        /* \"#utility.yul\":6858:7027   */\n    tag_120:\n        /* \"#utility.yul\":6942:6953   */\n      0x00\n        /* \"#utility.yul\":6976:6982   */\n      dup3\n        /* \"#utility.yul\":6971:6974   */\n      dup3\n        /* \"#utility.yul\":6964:6983   */\n      mstore\n        /* \"#utility.yul\":7016:7020   */\n      0x20\n        /* \"#utility.yul\":7011:7014   */\n      dup3\n        /* \"#utility.yul\":7007:7021   */\n      add\n        /* \"#utility.yul\":6992:7021   */\n      swap1\n      pop\n        /* \"#utility.yul\":6858:7027   */\n      swap3\n      swap2\n      pop\n      pop\n      jump\t// out\n        /* \"#utility.yul\":7033:7410   */\n    tag_121:\n        /* \"#utility.yul\":7121:7124   */\n      0x00\n        /* \"#utility.yul\":7149:7188   */\n      tag_218\n        /* \"#utility.yul\":7182:7187   */\n      dup3\n        /* \"#utility.yul\":7149:7188   */\n      tag_99\n      jump\t// in\n    tag_218:\n        /* \"#utility.yul\":7204:7275   */\n      tag_219\n        /* \"#utility.yul\":7268:7274   */\n      dup2\n        /* \"#utility.yul\":7263:7266   */\n      dup6\n        /* \"#utility.yul\":7204:7275   */\n      tag_120\n      jump\t// in\n    tag_219:\n        /* \"#utility.yul\":7197:7275   */\n      swap4\n      pop\n        /* \"#utility.yul\":7284:7349   */\n      tag_220\n        /* \"#utility.yul\":7342:7348   */\n      dup2\n        /* \"#utility.yul\":7337:7340   */\n      dup6\n        /* \"#utility.yul\":7330:7334   */\n      0x20\n        /* \"#utility.yul\":7323:7328   */\n      dup7\n        /* \"#utility.yul\":7319:7335   */\n      add\n        /* \"#utility.yul\":7284:7349   */\n      tag_101\n      jump\t// in\n    tag_220:\n        /* \"#utility.yul\":7374:7403   */\n      tag_221\n        /* \"#utility.yul\":7396:7402   */\n      dup2\n        /* \"#utility.yul\":7374:7403   */\n      tag_102\n      jump\t// in\n    tag_221:\n        /* \"#utility.yul\":7369:7372   */\n      dup5\n        /* \"#utility.yul\":7365:7404   */\n      add\n        /* \"#utility.yul\":7358:7404   */\n      swap2\n      pop\n        /* \"#utility.yul\":7125:7410   */\n      pop\n        /* \"#utility.yul\":7033:7410   */\n      swap3\n      swap2\n      pop\n      pop\n      jump\t// out\n        /* \"#utility.yul\":7416:7534   */\n    tag_122:\n        /* \"#utility.yul\":7503:7527   */\n      tag_223\n        /* \"#utility.yul\":7521:7526   */\n      dup2\n        /* \"#utility.yul\":7503:7527   */\n      tag_105\n      jump\t// in\n    tag_223:\n        /* \"#utility.yul\":7498:7501   */\n      dup3\n        /* \"#utility.yul\":7491:7528   */\n      mstore\n        /* \"#utility.yul\":7416:7534   */\n      pop\n      pop\n      jump\t// out\n        /* \"#utility.yul\":7540:8283   */\n    tag_29:\n        /* \"#utility.yul\":7759:7763   */\n      0x00\n        /* \"#utility.yul\":7797:7800   */\n      0xa0\n        /* \"#utility.yul\":7786:7795   */\n      dup3\n        /* \"#utility.yul\":7782:7801   */\n      add\n        /* \"#utility.yul\":7774:7801   */\n      swap1\n      pop\n        /* \"#utility.yul\":7811:7882   */\n      tag_225\n        /* \"#utility.yul\":7879:7880   */\n      0x00\n        /* \"#utility.yul\":7868:7877   */\n      dup4\n        /* \"#utility.yul\":7864:7881   */\n      add\n        /* \"#utility.yul\":7855:7861   */\n      dup9\n        /* \"#utility.yul\":7811:7882   */\n      tag_119\n      jump\t// in\n    tag_225:\n        /* \"#utility.yul\":7929:7938   */\n      dup2\n        /* \"#utility.yul\":7923:7927   */\n      dup2\n        /* \"#utility.yul\":7919:7939   */\n      sub\n        /* \"#utility.yul\":7914:7916   */\n      0x20\n        /* \"#utility.yul\":7903:7912   */\n      dup4\n        /* \"#utility.yul\":7899:7917   */\n      add\n        /* \"#utility.yul\":7892:7940   */\n      mstore\n        /* \"#utility.yul\":7957:8035   */\n      tag_226\n        /* \"#utility.yul\":8030:8034   */\n      dup2\n        /* \"#utility.yul\":8021:8027   */\n      dup8\n        /* \"#utility.yul\":7957:8035   */\n      tag_121\n      jump\t// in\n    tag_226:\n        /* \"#utility.yul\":7949:8035   */\n      swap1\n      pop\n        /* \"#utility.yul\":8045:8117   */\n      tag_227\n        /* \"#utility.yul\":8113:8115   */\n      0x40\n        /* \"#utility.yul\":8102:8111   */\n      dup4\n        /* \"#utility.yul\":8098:8116   */\n      add\n        /* \"#utility.yul\":8089:8095   */\n      dup7\n        /* \"#utility.yul\":8045:8117   */\n      tag_119\n      jump\t// in\n    tag_227:\n        /* \"#utility.yul\":8127:8199   */\n      tag_228\n        /* \"#utility.yul\":8195:8197   */\n      0x60\n        /* \"#utility.yul\":8184:8193   */\n      dup4\n        /* \"#utility.yul\":8180:8198   */\n      add\n        /* \"#utility.yul\":8171:8177   */\n      dup6\n        /* \"#utility.yul\":8127:8199   */\n      tag_122\n      jump\t// in\n    tag_228:\n        /* \"#utility.yul\":8209:8276   */\n      tag_229\n        /* \"#utility.yul\":8271:8274   */\n      0x80\n        /* \"#utility.yul\":8260:8269   */\n      dup4\n        /* \"#utility.yul\":8256:8275   */\n      add\n        /* \"#utility.yul\":8247:8253   */\n      dup5\n        /* \"#utility.yul\":8209:8276   */\n      tag_118\n      jump\t// in\n    tag_229:\n        /* \"#utility.yul\":7540:8283   */\n      swap7\n      swap6\n      pop\n      pop\n      pop\n      pop\n      pop\n      pop\n      jump\t// out\n        /* \"#utility.yul\":8345:9470   */\n    tag_123:\n        /* \"#utility.yul\":8460:8463   */\n      0x00\n        /* \"#utility.yul\":8496:8500   */\n      0xa0\n        /* \"#utility.yul\":8491:8494   */\n      dup4\n        /* \"#utility.yul\":8487:8501   */\n      add\n        /* \"#utility.yul\":8581:8585   */\n      0x00\n        /* \"#utility.yul\":8574:8579   */\n      dup4\n        /* \"#utility.yul\":8570:8586   */\n      add\n        /* \"#utility.yul\":8564:8587   */\n      mload\n        /* \"#utility.yul\":8600:8663   */\n      tag_231\n        /* \"#utility.yul\":8657:8661   */\n      0x00\n        /* \"#utility.yul\":8652:8655   */\n      dup7\n        /* \"#utility.yul\":8648:8662   */\n      add\n        /* \"#utility.yul\":8634:8646   */\n      dup3\n        /* \"#utility.yul\":8600:8663   */\n      tag_98\n      jump\t// in\n    tag_231:\n        /* \"#utility.yul\":8511:8673   */\n      pop\n        /* \"#utility.yul\":8755:8759   */\n      0x20\n        /* \"#utility.yul\":8748:8753   */\n      dup4\n        /* \"#utility.yul\":8744:8760   */\n      add\n        /* \"#utility.yul\":8738:8761   */\n      mload\n        /* \"#utility.yul\":8808:8811   */\n      dup5\n        /* \"#utility.yul\":8802:8806   */\n      dup3\n        /* \"#utility.yul\":8798:8812   */\n      sub\n        /* \"#utility.yul\":8791:8795   */\n      0x20\n        /* \"#utility.yul\":8786:8789   */\n      dup7\n        /* \"#utility.yul\":8782:8796   */\n      add\n        /* \"#utility.yul\":8775:8813   */\n      mstore\n        /* \"#utility.yul\":8834:8907   */\n      tag_232\n        /* \"#utility.yul\":8902:8906   */\n      dup3\n        /* \"#utility.yul\":8888:8900   */\n      dup3\n        /* \"#utility.yul\":8834:8907   */\n      tag_103\n      jump\t// in\n    tag_232:\n        /* \"#utility.yul\":8826:8907   */\n      swap2\n      pop\n        /* \"#utility.yul\":8683:8918   */\n      pop\n        /* \"#utility.yul\":9001:9005   */\n      0x40\n        /* \"#utility.yul\":8994:8999   */\n      dup4\n        /* \"#utility.yul\":8990:9006   */\n      add\n        /* \"#utility.yul\":8984:9007   */\n      mload\n        /* \"#utility.yul\":9020:9083   */\n      tag_233\n        /* \"#utility.yul\":9077:9081   */\n      0x40\n        /* \"#utility.yul\":9072:9075   */\n      dup7\n        /* \"#utility.yul\":9068:9082   */\n      add\n        /* \"#utility.yul\":9054:9066   */\n      dup3\n        /* \"#utility.yul\":9020:9083   */\n      tag_98\n      jump\t// in\n    tag_233:\n        /* \"#utility.yul\":8928:9093   */\n      pop\n        /* \"#utility.yul\":9176:9180   */\n      0x60\n        /* \"#utility.yul\":9169:9174   */\n      dup4\n        /* \"#utility.yul\":9165:9181   */\n      add\n        /* \"#utility.yul\":9159:9182   */\n      mload\n        /* \"#utility.yul\":9195:9258   */\n      tag_234\n        /* \"#utility.yul\":9252:9256   */\n      0x60\n        /* \"#utility.yul\":9247:9250   */\n      dup7\n        /* \"#utility.yul\":9243:9257   */\n      add\n        /* \"#utility.yul\":9229:9241   */\n      dup3\n        /* \"#utility.yul\":9195:9258   */\n      tag_106\n      jump\t// in\n    tag_234:\n        /* \"#utility.yul\":9103:9268   */\n      pop\n        /* \"#utility.yul\":9357:9361   */\n      0x80\n        /* \"#utility.yul\":9350:9355   */\n      dup4\n        /* \"#utility.yul\":9346:9362   */\n      add\n        /* \"#utility.yul\":9340:9363   */\n      mload\n        /* \"#utility.yul\":9376:9433   */\n      tag_235\n        /* \"#utility.yul\":9427:9431   */\n      0x80\n        /* \"#utility.yul\":9422:9425   */\n      dup7\n        /* \"#utility.yul\":9418:9432   */\n      add\n        /* \"#utility.yul\":9404:9416   */\n      dup3\n        /* \"#utility.yul\":9376:9433   */\n      tag_108\n      jump\t// in\n    tag_235:\n        /* \"#utility.yul\":9278:9443   */\n      pop\n        /* \"#utility.yul\":9460:9464   */\n      dup1\n        /* \"#utility.yul\":9453:9464   */\n      swap2\n      pop\n        /* \"#utility.yul\":8465:9470   */\n      pop\n        /* \"#utility.yul\":8345:9470   */\n      swap3\n      swap2\n      pop\n      pop\n      jump\t// out\n        /* \"#utility.yul\":9476:9841   */\n    tag_37:\n        /* \"#utility.yul\":9615:9619   */\n      0x00\n        /* \"#utility.yul\":9653:9655   */\n      0x20\n        /* \"#utility.yul\":9642:9651   */\n      dup3\n        /* \"#utility.yul\":9638:9656   */\n      add\n        /* \"#utility.yul\":9630:9656   */\n      swap1\n      pop\n        /* \"#utility.yul\":9702:9711   */\n      dup2\n        /* \"#utility.yul\":9696:9700   */\n      dup2\n        /* \"#utility.yul\":9692:9712   */\n      sub\n        /* \"#utility.yul\":9688:9689   */\n      0x00\n        /* \"#utility.yul\":9677:9686   */\n      dup4\n        /* \"#utility.yul\":9673:9690   */\n      add\n        /* \"#utility.yul\":9666:9713   */\n      mstore\n        /* \"#utility.yul\":9730:9834   */\n      tag_237\n        /* \"#utility.yul\":9829:9833   */\n      dup2\n        /* \"#utility.yul\":9820:9826   */\n      dup5\n        /* \"#utility.yul\":9730:9834   */\n      tag_123\n      jump\t// in\n    tag_237:\n        /* \"#utility.yul\":9722:9834   */\n      swap1\n      pop\n        /* \"#utility.yul\":9476:9841   */\n      swap3\n      swap2\n      pop\n      pop\n      jump\t// out\n        /* \"#utility.yul\":9847:10069   */\n    tag_41:\n        /* \"#utility.yul\":9940:9944   */\n      0x00\n        /* \"#utility.yul\":9978:9980   */\n      0x20\n        /* \"#utility.yul\":9967:9976   */\n      dup3\n        /* \"#utility.yul\":9963:9981   */\n      add\n        /* \"#utility.yul\":9955:9981   */\n      swap1\n      pop\n        /* \"#utility.yul\":9991:10062   */\n      tag_239\n        /* \"#utility.yul\":10059:10060   */\n      0x00\n        /* \"#utility.yul\":10048:10057   */\n      dup4\n        /* \"#utility.yul\":10044:10061   */\n      add\n        /* \"#utility.yul\":10035:10041   */\n      dup5\n        /* \"#utility.yul\":9991:10062   */\n      tag_119\n      jump\t// in\n    tag_239:\n        /* \"#utility.yul\":9847:10069   */\n      swap3\n      swap2\n      pop\n      pop\n      jump\t// out\n        /* \"#utility.yul\":10075:10192   */\n    tag_124:\n        /* \"#utility.yul\":10184:10185   */\n      0x00\n        /* \"#utility.yul\":10181:10182   */\n      dup1\n        /* \"#utility.yul\":10174:10186   */\n      revert\n        /* \"#utility.yul\":10198:10315   */\n    tag_125:\n        /* \"#utility.yul\":10307:10308   */\n      0x00\n        /* \"#utility.yul\":10304:10305   */\n      dup1\n        /* \"#utility.yul\":10297:10309   */\n      revert\n        /* \"#utility.yul\":10321:10501   */\n    tag_49:\n        /* \"#utility.yul\":10369:10446   */\n      0x4e487b7100000000000000000000000000000000000000000000000000000000\n        /* \"#utility.yul\":10366:10367   */\n      0x00\n        /* \"#utility.yul\":10359:10447   */\n      mstore\n        /* \"#utility.yul\":10466:10470   */\n      0x41\n        /* \"#utility.yul\":10463:10464   */\n      0x04\n        /* \"#utility.yul\":10456:10471   */\n      mstore\n        /* \"#utility.yul\":10490:10494   */\n      0x24\n        /* \"#utility.yul\":10487:10488   */\n      0x00\n        /* \"#utility.yul\":10480:10495   */\n      revert\n        /* \"#utility.yul\":10507:10788   */\n    tag_126:\n        /* \"#utility.yul\":10590:10617   */\n      tag_244\n        /* \"#utility.yul\":10612:10616   */\n      dup3\n        /* \"#utility.yul\":10590:10617   */\n      tag_102\n      jump\t// in\n    tag_244:\n        /* \"#utility.yul\":10582:10588   */\n      dup2\n        /* \"#utility.yul\":10578:10618   */\n      add\n        /* \"#utility.yul\":10720:10726   */\n      dup2\n        /* \"#utility.yul\":10708:10718   */\n      dup2\n        /* \"#utility.yul\":10705:10727   */\n      lt\n        /* \"#utility.yul\":10684:10702   */\n      0xffffffffffffffff\n        /* \"#utility.yul\":10672:10682   */\n      dup3\n        /* \"#utility.yul\":10669:10703   */\n      gt\n        /* \"#utility.yul\":10666:10728   */\n      or\n        /* \"#utility.yul\":10663:10751   */\n      iszero\n      tag_245\n      jumpi\n        /* \"#utility.yul\":10731:10749   */\n      tag_246\n      tag_49\n      jump\t// in\n    tag_246:\n        /* \"#utility.yul\":10663:10751   */\n    tag_245:\n        /* \"#utility.yul\":10771:10781   */\n      dup1\n        /* \"#utility.yul\":10767:10769   */\n      0x40\n        /* \"#utility.yul\":10760:10782   */\n      mstore\n        /* \"#utility.yul\":10550:10788   */\n      pop\n        /* \"#utility.yul\":10507:10788   */\n      pop\n      pop\n      jump\t// out\n        /* \"#utility.yul\":10794:10923   */\n    tag_127:\n        /* \"#utility.yul\":10828:10834   */\n      0x00\n        /* \"#utility.yul\":10855:10875   */\n      tag_248\n      tag_113\n      jump\t// in\n    tag_248:\n        /* \"#utility.yul\":10845:10875   */\n      swap1\n      pop\n        /* \"#utility.yul\":10884:10917   */\n      tag_249\n        /* \"#utility.yul\":10912:10916   */\n      dup3\n        /* \"#utility.yul\":10904:10910   */\n      dup3\n        /* \"#utility.yul\":10884:10917   */\n      tag_126\n      jump\t// in\n    tag_249:\n        /* \"#utility.yul\":10794:10923   */\n      swap2\n      swap1\n      pop\n      jump\t// out\n        /* \"#utility.yul\":10929:11237   */\n    tag_128:\n        /* \"#utility.yul\":10991:10995   */\n      0x00\n        /* \"#utility.yul\":11081:11099   */\n      0xffffffffffffffff\n        /* \"#utility.yul\":11073:11079   */\n      dup3\n        /* \"#utility.yul\":11070:11100   */\n      gt\n        /* \"#utility.yul\":11067:11123   */\n      iszero\n      tag_251\n      jumpi\n        /* \"#utility.yul\":11103:11121   */\n      tag_252\n      tag_49\n      jump\t// in\n    tag_252:\n        /* \"#utility.yul\":11067:11123   */\n    tag_251:\n        /* \"#utility.yul\":11141:11170   */\n      tag_253\n        /* \"#utility.yul\":11163:11169   */\n      dup3\n        /* \"#utility.yul\":11141:11170   */\n      tag_102\n      jump\t// in\n    tag_253:\n        /* \"#utility.yul\":11133:11170   */\n      swap1\n      pop\n        /* \"#utility.yul\":11225:11229   */\n      0x20\n        /* \"#utility.yul\":11219:11223   */\n      dup2\n        /* \"#utility.yul\":11215:11230   */\n      add\n        /* \"#utility.yul\":11207:11230   */\n      swap1\n      pop\n        /* \"#utility.yul\":10929:11237   */\n      swap2\n      swap1\n      pop\n      jump\t// out\n        /* \"#utility.yul\":11243:11389   */\n    tag_129:\n        /* \"#utility.yul\":11340:11346   */\n      dup3\n        /* \"#utility.yul\":11335:11338   */\n      dup2\n        /* \"#utility.yul\":11330:11333   */\n      dup4\n        /* \"#utility.yul\":11317:11347   */\n      calldatacopy\n        /* \"#utility.yul\":11381:11382   */\n      0x00\n        /* \"#utility.yul\":11372:11378   */\n      dup4\n        /* \"#utility.yul\":11367:11370   */\n      dup4\n        /* \"#utility.yul\":11363:11379   */\n      add\n        /* \"#utility.yul\":11356:11383   */\n      mstore\n        /* \"#utility.yul\":11243:11389   */\n      pop\n      pop\n      pop\n      jump\t// out\n        /* \"#utility.yul\":11395:11820   */\n    tag_130:\n        /* \"#utility.yul\":11473:11478   */\n      0x00\n        /* \"#utility.yul\":11498:11564   */\n      tag_256\n        /* \"#utility.yul\":11514:11563   */\n      tag_257\n        /* \"#utility.yul\":11556:11562   */\n      dup5\n        /* \"#utility.yul\":11514:11563   */\n      tag_128\n      jump\t// in\n    tag_257:\n        /* \"#utility.yul\":11498:11564   */\n      tag_127\n      jump\t// in\n    tag_256:\n        /* \"#utility.yul\":11489:11564   */\n      swap1\n      pop\n        /* \"#utility.yul\":11587:11593   */\n      dup3\n        /* \"#utility.yul\":11580:11585   */\n      dup2\n        /* \"#utility.yul\":11573:11594   */\n      mstore\n        /* \"#utility.yul\":11625:11629   */\n      0x20\n        /* \"#utility.yul\":11618:11623   */\n      dup2\n        /* \"#utility.yul\":11614:11630   */\n      add\n        /* \"#utility.yul\":11663:11666   */\n      dup5\n        /* \"#utility.yul\":11654:11660   */\n      dup5\n        /* \"#utility.yul\":11649:11652   */\n      dup5\n        /* \"#utility.yul\":11645:11661   */\n      add\n        /* \"#utility.yul\":11642:11667   */\n      gt\n        /* \"#utility.yul\":11639:11751   */\n      iszero\n      tag_258\n      jumpi\n        /* \"#utility.yul\":11670:11749   */\n      tag_259\n      tag_125\n      jump\t// in\n    tag_259:\n        /* \"#utility.yul\":11639:11751   */\n    tag_258:\n        /* \"#utility.yul\":11760:11814   */\n      tag_260\n        /* \"#utility.yul\":11807:11813   */\n      dup5\n        /* \"#utility.yul\":11802:11805   */\n      dup3\n        /* \"#utility.yul\":11797:11800   */\n      dup6\n        /* \"#utility.yul\":11760:11814   */\n      tag_129\n      jump\t// in\n    tag_260:\n        /* \"#utility.yul\":11479:11820   */\n      pop\n        /* \"#utility.yul\":11395:11820   */\n      swap4\n      swap3\n      pop\n      pop\n      pop\n      jump\t// out\n        /* \"#utility.yul\":11840:12180   */\n    tag_131:\n        /* \"#utility.yul\":11896:11901   */\n      0x00\n        /* \"#utility.yul\":11945:11948   */\n      dup3\n        /* \"#utility.yul\":11938:11942   */\n      0x1f\n        /* \"#utility.yul\":11930:11936   */\n      dup4\n        /* \"#utility.yul\":11926:11943   */\n      add\n        /* \"#utility.yul\":11922:11949   */\n      slt\n        /* \"#utility.yul\":11912:12034   */\n      tag_262\n      jumpi\n        /* \"#utility.yul\":11953:12032   */\n      tag_263\n      tag_124\n      jump\t// in\n    tag_263:\n        /* \"#utility.yul\":11912:12034   */\n    tag_262:\n        /* \"#utility.yul\":12070:12076   */\n      dup2\n        /* \"#utility.yul\":12057:12077   */\n      calldataload\n        /* \"#utility.yul\":12095:12174   */\n      tag_264\n        /* \"#utility.yul\":12170:12173   */\n      dup5\n        /* \"#utility.yul\":12162:12168   */\n      dup3\n        /* \"#utility.yul\":12155:12159   */\n      0x20\n        /* \"#utility.yul\":12147:12153   */\n      dup7\n        /* \"#utility.yul\":12143:12160   */\n      add\n        /* \"#utility.yul\":12095:12174   */\n      tag_130\n      jump\t// in\n    tag_264:\n        /* \"#utility.yul\":12086:12174   */\n      swap2\n      pop\n        /* \"#utility.yul\":11902:12180   */\n      pop\n        /* \"#utility.yul\":11840:12180   */\n      swap3\n      swap2\n      pop\n      pop\n      jump\t// out\n        /* \"#utility.yul\":12186:12840   */\n    tag_44:\n        /* \"#utility.yul\":12264:12270   */\n      0x00\n        /* \"#utility.yul\":12272:12278   */\n      dup1\n        /* \"#utility.yul\":12321:12323   */\n      0x40\n        /* \"#utility.yul\":12309:12318   */\n      dup4\n        /* \"#utility.yul\":12300:12307   */\n      dup6\n        /* \"#utility.yul\":12296:12319   */\n      sub\n        /* \"#utility.yul\":12292:12324   */\n      slt\n        /* \"#utility.yul\":12289:12408   */\n      iszero\n      tag_266\n      jumpi\n        /* \"#utility.yul\":12327:12406   */\n      tag_267\n      tag_114\n      jump\t// in\n    tag_267:\n        /* \"#utility.yul\":12289:12408   */\n    tag_266:\n        /* \"#utility.yul\":12475:12476   */\n      0x00\n        /* \"#utility.yul\":12464:12473   */\n      dup4\n        /* \"#utility.yul\":12460:12477   */\n      add\n        /* \"#utility.yul\":12447:12478   */\n      calldataload\n        /* \"#utility.yul\":12505:12523   */\n      0xffffffffffffffff\n        /* \"#utility.yul\":12497:12503   */\n      dup2\n        /* \"#utility.yul\":12494:12524   */\n      gt\n        /* \"#utility.yul\":12491:12608   */\n      iszero\n      tag_268\n      jumpi\n        /* \"#utility.yul\":12527:12606   */\n      tag_269\n      tag_115\n      jump\t// in\n    tag_269:\n        /* \"#utility.yul\":12491:12608   */\n    tag_268:\n        /* \"#utility.yul\":12632:12695   */\n      tag_270\n        /* \"#utility.yul\":12687:12694   */\n      dup6\n        /* \"#utility.yul\":12678:12684   */\n      dup3\n        /* \"#utility.yul\":12667:12676   */\n      dup7\n        /* \"#utility.yul\":12663:12685   */\n      add\n        /* \"#utility.yul\":12632:12695   */\n      tag_131\n      jump\t// in\n    tag_270:\n        /* \"#utility.yul\":12622:12695   */\n      swap3\n      pop\n        /* \"#utility.yul\":12418:12705   */\n      pop\n        /* \"#utility.yul\":12744:12746   */\n      0x20\n        /* \"#utility.yul\":12770:12823   */\n      tag_271\n        /* \"#utility.yul\":12815:12822   */\n      dup6\n        /* \"#utility.yul\":12806:12812   */\n      dup3\n        /* \"#utility.yul\":12795:12804   */\n      dup7\n        /* \"#utility.yul\":12791:12813   */\n      add\n        /* \"#utility.yul\":12770:12823   */\n      tag_117\n      jump\t// in\n    tag_271:\n        /* \"#utility.yul\":12760:12823   */\n      swap2\n      pop\n        /* \"#utility.yul\":12715:12833   */\n      pop\n        /* \"#utility.yul\":12186:12840   */\n      swap3\n      pop\n      swap3\n      swap1\n      pop\n      jump\t// out\n        /* \"#utility.yul\":12846:13026   */\n    tag_132:\n        /* \"#utility.yul\":12894:12971   */\n      0x4e487b7100000000000000000000000000000000000000000000000000000000\n        /* \"#utility.yul\":12891:12892   */\n      0x00\n        /* \"#utility.yul\":12884:12972   */\n      mstore\n        /* \"#utility.yul\":12991:12995   */\n      0x22\n        /* \"#utility.yul\":12988:12989   */\n      0x04\n        /* \"#utility.yul\":12981:12996   */\n      mstore\n        /* \"#utility.yul\":13015:13019   */\n      0x24\n        /* \"#utility.yul\":13012:13013   */\n      0x00\n        /* \"#utility.yul\":13005:13020   */\n      revert\n        /* \"#utility.yul\":13032:13352   */\n    tag_58:\n        /* \"#utility.yul\":13076:13082   */\n      0x00\n        /* \"#utility.yul\":13113:13114   */\n      0x02\n        /* \"#utility.yul\":13107:13111   */\n      dup3\n        /* \"#utility.yul\":13103:13115   */\n      div\n        /* \"#utility.yul\":13093:13115   */\n      swap1\n      pop\n        /* \"#utility.yul\":13160:13161   */\n      0x01\n        /* \"#utility.yul\":13154:13158   */\n      dup3\n        /* \"#utility.yul\":13150:13162   */\n      and\n        /* \"#utility.yul\":13181:13199   */\n      dup1\n        /* \"#utility.yul\":13171:13252   */\n      tag_274\n      jumpi\n        /* \"#utility.yul\":13237:13241   */\n      0x7f\n        /* \"#utility.yul\":13229:13235   */\n      dup3\n        /* \"#utility.yul\":13225:13242   */\n      and\n        /* \"#utility.yul\":13215:13242   */\n      swap2\n      pop\n        /* \"#utility.yul\":13171:13252   */\n    tag_274:\n        /* \"#utility.yul\":13299:13301   */\n      0x20\n        /* \"#utility.yul\":13291:13297   */\n      dup3\n        /* \"#utility.yul\":13288:13302   */\n      lt\n        /* \"#utility.yul\":13268:13286   */\n      dup2\n        /* \"#utility.yul\":13265:13303   */\n      sub\n        /* \"#utility.yul\":13262:13346   */\n      tag_275\n      jumpi\n        /* \"#utility.yul\":13318:13336   */\n      tag_276\n      tag_132\n      jump\t// in\n    tag_276:\n        /* \"#utility.yul\":13262:13346   */\n    tag_275:\n        /* \"#utility.yul\":13083:13352   */\n      pop\n        /* \"#utility.yul\":13032:13352   */\n      swap2\n      swap1\n      pop\n      jump\t// out\n        /* \"#utility.yul\":13358:13538   */\n    tag_133:\n        /* \"#utility.yul\":13406:13483   */\n      0x4e487b7100000000000000000000000000000000000000000000000000000000\n        /* \"#utility.yul\":13403:13404   */\n      0x00\n        /* \"#utility.yul\":13396:13484   */\n      mstore\n        /* \"#utility.yul\":13503:13507   */\n      0x11\n        /* \"#utility.yul\":13500:13501   */\n      0x04\n        /* \"#utility.yul\":13493:13508   */\n      mstore\n        /* \"#utility.yul\":13527:13531   */\n      0x24\n        /* \"#utility.yul\":13524:13525   */\n      0x00\n        /* \"#utility.yul\":13517:13532   */\n      revert\n        /* \"#utility.yul\":13544:13738   */\n    tag_64:\n        /* \"#utility.yul\":13584:13588   */\n      0x00\n        /* \"#utility.yul\":13604:13624   */\n      tag_279\n        /* \"#utility.yul\":13622:13623   */\n      dup3\n        /* \"#utility.yul\":13604:13624   */\n      tag_97\n      jump\t// in\n    tag_279:\n        /* \"#utility.yul\":13599:13624   */\n      swap2\n      pop\n        /* \"#utility.yul\":13638:13658   */\n      tag_280\n        /* \"#utility.yul\":13656:13657   */\n      dup4\n        /* \"#utility.yul\":13638:13658   */\n      tag_97\n      jump\t// in\n    tag_280:\n        /* \"#utility.yul\":13633:13658   */\n      swap3\n      pop\n        /* \"#utility.yul\":13682:13683   */\n      dup3\n        /* \"#utility.yul\":13679:13680   */\n      dup3\n        /* \"#utility.yul\":13675:13684   */\n      sub\n        /* \"#utility.yul\":13667:13684   */\n      swap1\n      pop\n        /* \"#utility.yul\":13706:13707   */\n      dup2\n        /* \"#utility.yul\":13700:13704   */\n      dup2\n        /* \"#utility.yul\":13697:13708   */\n      gt\n        /* \"#utility.yul\":13694:13731   */\n      iszero\n      tag_281\n      jumpi\n        /* \"#utility.yul\":13711:13729   */\n      tag_282\n      tag_133\n      jump\t// in\n    tag_282:\n        /* \"#utility.yul\":13694:13731   */\n    tag_281:\n        /* \"#utility.yul\":13544:13738   */\n      swap3\n      swap2\n      pop\n      pop\n      jump\t// out\n        /* \"#utility.yul\":13744:13924   */\n    tag_67:\n        /* \"#utility.yul\":13792:13869   */\n      0x4e487b7100000000000000000000000000000000000000000000000000000000\n        /* \"#utility.yul\":13789:13790   */\n      0x00\n        /* \"#utility.yul\":13782:13870   */\n      mstore\n        /* \"#utility.yul\":13889:13893   */\n      0x32\n        /* \"#utility.yul\":13886:13887   */\n      0x04\n        /* \"#utility.yul\":13879:13894   */\n      mstore\n        /* \"#utility.yul\":13913:13917   */\n      0x24\n        /* \"#utility.yul\":13910:13911   */\n      0x00\n        /* \"#utility.yul\":13903:13918   */\n      revert\n        /* \"#utility.yul\":13930:14163   */\n    tag_69:\n        /* \"#utility.yul\":13969:13972   */\n      0x00\n        /* \"#utility.yul\":13992:14016   */\n      tag_285\n        /* \"#utility.yul\":14010:14015   */\n      dup3\n        /* \"#utility.yul\":13992:14016   */\n      tag_97\n      jump\t// in\n    tag_285:\n        /* \"#utility.yul\":13983:14016   */\n      swap2\n      pop\n        /* \"#utility.yul\":14038:14104   */\n      0xffffffffffffffffffffffffffffffffffffffffffffffffffffffffffffffff\n        /* \"#utility.yul\":14031:14036   */\n      dup3\n        /* \"#utility.yul\":14028:14105   */\n      sub\n        /* \"#utility.yul\":14025:14128   */\n      tag_286\n      jumpi\n        /* \"#utility.yul\":14108:14126   */\n      tag_287\n      tag_133\n      jump\t// in\n    tag_287:\n        /* \"#utility.yul\":14025:14128   */\n    tag_286:\n        /* \"#utility.yul\":14155:14156   */\n      0x01\n        /* \"#utility.yul\":14148:14153   */\n      dup3\n        /* \"#utility.yul\":14144:14157   */\n      add\n        /* \"#utility.yul\":14137:14157   */\n      swap1\n      pop\n        /* \"#utility.yul\":13930:14163   */\n      swap2\n      swap1\n      pop\n      jump\t// out\n        /* \"#utility.yul\":14169:14402   */\n    tag_134:\n        /* \"#utility.yul\":14309:14343   */\n      0x4f6e6c79207468652070726f64756374206f776e65722063616e207665726966\n        /* \"#utility.yul\":14305:14306   */\n      0x00\n        /* \"#utility.yul\":14297:14303   */\n      dup3\n        /* \"#utility.yul\":14293:14307   */\n      add\n        /* \"#utility.yul\":14286:14344   */\n      mstore\n        /* \"#utility.yul\":14378:14394   */\n      0x792061757468656e746963697479000000000000000000000000000000000000\n        /* \"#utility.yul\":14373:14375   */\n      0x20\n        /* \"#utility.yul\":14365:14371   */\n      dup3\n        /* \"#utility.yul\":14361:14376   */\n      add\n        /* \"#utility.yul\":14354:14395   */\n      mstore\n        /* \"#utility.yul\":14169:14402   */\n      pop\n      jump\t// out\n        /* \"#utility.yul\":14408:14774   */\n    tag_135:\n        /* \"#utility.yul\":14550:14553   */\n      0x00\n        /* \"#utility.yul\":14571:14638   */\n      tag_290\n        /* \"#utility.yul\":14635:14637   */\n      0x2e\n        /* \"#utility.yul\":14630:14633   */\n      dup4\n        /* \"#utility.yul\":14571:14638   */\n      tag_120\n      jump\t// in\n    tag_290:\n        /* \"#utility.yul\":14564:14638   */\n      swap2\n      pop\n        /* \"#utility.yul\":14647:14740   */\n      tag_291\n        /* \"#utility.yul\":14736:14739   */\n      dup3\n        /* \"#utility.yul\":14647:14740   */\n      tag_134\n      jump\t// in\n    tag_291:\n        /* \"#utility.yul\":14765:14767   */\n      0x40\n        /* \"#utility.yul\":14760:14763   */\n      dup3\n        /* \"#utility.yul\":14756:14768   */\n      add\n        /* \"#utility.yul\":14749:14768   */\n      swap1\n      pop\n        /* \"#utility.yul\":14408:14774   */\n      swap2\n      swap1\n      pop\n      jump\t// out\n        /* \"#utility.yul\":14780:15199   */\n    tag_73:\n        /* \"#utility.yul\":14946:14950   */\n      0x00\n        /* \"#utility.yul\":14984:14986   */\n      0x20\n        /* \"#utility.yul\":14973:14982   */\n      dup3\n        /* \"#utility.yul\":14969:14987   */\n      add\n        /* \"#utility.yul\":14961:14987   */\n      swap1\n      pop\n        /* \"#utility.yul\":15033:15042   */\n      dup2\n        /* \"#utility.yul\":15027:15031   */\n      dup2\n        /* \"#utility.yul\":15023:15043   */\n      sub\n        /* \"#utility.yul\":15019:15020   */\n      0x00\n        /* \"#utility.yul\":15008:15017   */\n      dup4\n        /* \"#utility.yul\":15004:15021   */\n      add\n        /* \"#utility.yul\":14997:15044   */\n      mstore\n        /* \"#utility.yul\":15061:15192   */\n      tag_293\n        /* \"#utility.yul\":15187:15191   */\n      dup2\n        /* \"#utility.yul\":15061:15192   */\n      tag_135\n      jump\t// in\n    tag_293:\n        /* \"#utility.yul\":15053:15192   */\n      swap1\n      pop\n        /* \"#utility.yul\":14780:15199   */\n      swap2\n      swap1\n      pop\n      jump\t// out\n        /* \"#utility.yul\":15205:15346   */\n    tag_136:\n        /* \"#utility.yul\":15254:15258   */\n      0x00\n        /* \"#utility.yul\":15277:15280   */\n      dup2\n        /* \"#utility.yul\":15269:15280   */\n      swap1\n      pop\n        /* \"#utility.yul\":15300:15303   */\n      dup2\n        /* \"#utility.yul\":15297:15298   */\n      0x00\n        /* \"#utility.yul\":15290:15304   */\n      mstore\n        /* \"#utility.yul\":15334:15338   */\n      0x20\n        /* \"#utility.yul\":15331:15332   */\n      0x00\n        /* \"#utility.yul\":15321:15339   */\n      keccak256\n        /* \"#utility.yul\":15313:15339   */\n      swap1\n      pop\n        /* \"#utility.yul\":15205:15346   */\n      swap2\n      swap1\n      pop\n      jump\t// out\n        /* \"#utility.yul\":15352:15445   */\n    tag_137:\n        /* \"#utility.yul\":15389:15395   */\n      0x00\n        /* \"#utility.yul\":15436:15438   */\n      0x20\n        /* \"#utility.yul\":15431:15433   */\n      0x1f\n        /* \"#utility.yul\":15424:15429   */\n      dup4\n        /* \"#utility.yul\":15420:15434   */\n      add\n        /* \"#utility.yul\":15416:15439   */\n      div\n        /* \"#utility.yul\":15406:15439   */\n      swap1\n      pop\n        /* \"#utility.yul\":15352:15445   */\n      swap2\n      swap1\n      pop\n      jump\t// out\n        /* \"#utility.yul\":15451:15558   */\n    tag_138:\n        /* \"#utility.yul\":15495:15503   */\n      0x00\n        /* \"#utility.yul\":15545:15550   */\n      dup3\n        /* \"#utility.yul\":15539:15543   */\n      dup3\n        /* \"#utility.yul\":15535:15551   */\n      shl\n        /* \"#utility.yul\":15514:15551   */\n      swap1\n      pop\n        /* \"#utility.yul\":15451:15558   */\n      swap3\n      swap2\n      pop\n      pop\n      jump\t// out\n        /* \"#utility.yul\":15564:15957   */\n    tag_139:\n        /* \"#utility.yul\":15633:15639   */\n      0x00\n        /* \"#utility.yul\":15683:15684   */\n      0x08\n        /* \"#utility.yul\":15671:15681   */\n      dup4\n        /* \"#utility.yul\":15667:15685   */\n      mul\n        /* \"#utility.yul\":15706:15803   */\n      tag_298\n        /* \"#utility.yul\":15736:15802   */\n      0xffffffffffffffffffffffffffffffffffffffffffffffffffffffffffffffff\n        /* \"#utility.yul\":15725:15734   */\n      dup3\n        /* \"#utility.yul\":15706:15803   */\n      tag_138\n      jump\t// in\n    tag_298:\n        /* \"#utility.yul\":15824:15863   */\n      tag_299\n        /* \"#utility.yul\":15854:15862   */\n      dup7\n        /* \"#utility.yul\":15843:15852   */\n      dup4\n        /* \"#utility.yul\":15824:15863   */\n      tag_138\n      jump\t// in\n    tag_299:\n        /* \"#utility.yul\":15812:15863   */\n      swap6\n      pop\n        /* \"#utility.yul\":15896:15900   */\n      dup1\n        /* \"#utility.yul\":15892:15901   */\n      not\n        /* \"#utility.yul\":15885:15890   */\n      dup5\n        /* \"#utility.yul\":15881:15902   */\n      and\n        /* \"#utility.yul\":15872:15902   */\n      swap4\n      pop\n        /* \"#utility.yul\":15945:15949   */\n      dup1\n        /* \"#utility.yul\":15935:15943   */\n      dup7\n        /* \"#utility.yul\":15931:15950   */\n      and\n        /* \"#utility.yul\":15924:15929   */\n      dup5\n        /* \"#utility.yul\":15921:15951   */\n      or\n        /* \"#utility.yul\":15911:15951   */\n      swap3\n      pop\n        /* \"#utility.yul\":15640:15957   */\n      pop\n      pop\n        /* \"#utility.yul\":15564:15957   */\n      swap4\n      swap3\n      pop\n      pop\n      pop\n      jump\t// out\n        /* \"#utility.yul\":15963:16023   */\n    tag_140:\n        /* \"#utility.yul\":15991:15994   */\n      0x00\n        /* \"#utility.yul\":16012:16017   */\n      dup2\n        /* \"#utility.yul\":16005:16017   */\n      swap1\n      pop\n        /* \"#utility.yul\":15963:16023   */\n      swap2\n      swap1\n      pop\n      jump\t// out\n        /* \"#utility.yul\":16029:16171   */\n    tag_141:\n        /* \"#utility.yul\":16079:16088   */\n      0x00\n        /* \"#utility.yul\":16112:16165   */\n      tag_302\n        /* \"#utility.yul\":16130:16164   */\n      tag_303\n        /* \"#utility.yul\":16139:16163   */\n      tag_304\n        /* \"#utility.yul\":16157:16162   */\n      dup5\n        /* \"#utility.yul\":16139:16163   */\n      tag_97\n      jump\t// in\n    tag_304:\n        /* \"#utility.yul\":16130:16164   */\n      tag_140\n      jump\t// in\n    tag_303:\n        /* \"#utility.yul\":16112:16165   */\n      tag_97\n      jump\t// in\n    tag_302:\n        /* \"#utility.yul\":16099:16165   */\n      swap1\n      pop\n        /* \"#utility.yul\":16029:16171   */\n      swap2\n      swap1\n      pop\n      jump\t// out\n        /* \"#utility.yul\":16177:16252   */\n    tag_142:\n        /* \"#utility.yul\":16220:16223   */\n      0x00\n        /* \"#utility.yul\":16241:16246   */\n      dup2\n        /* \"#utility.yul\":16234:16246   */\n      swap1\n      pop\n        /* \"#utility.yul\":16177:16252   */\n      swap2\n      swap1\n      pop\n      jump\t// out\n        /* \"#utility.yul\":16258:16527   */\n    tag_143:\n        /* \"#utility.yul\":16368:16407   */\n      tag_307\n        /* \"#utility.yul\":16399:16406   */\n      dup4\n        /* \"#utility.yul\":16368:16407   */\n      tag_141\n      jump\t// in\n    tag_307:\n        /* \"#utility.yul\":16429:16520   */\n      tag_308\n        /* \"#utility.yul\":16478:16519   */\n      tag_309\n        /* \"#utility.yul\":16502:16518   */\n      dup3\n        /* \"#utility.yul\":16478:16519   */\n      tag_142\n      jump\t// in\n    tag_309:\n        /* \"#utility.yul\":16470:16476   */\n      dup5\n        /* \"#utility.yul\":16463:16467   */\n      dup5\n        /* \"#utility.yul\":16457:16468   */\n      sload\n        /* \"#utility.yul\":16429:16520   */\n      tag_139\n      jump\t// in\n    tag_308:\n        /* \"#utility.yul\":16423:16427   */\n      dup3\n        /* \"#utility.yul\":16416:16521   */\n      sstore\n        /* \"#utility.yul\":16334:16527   */\n      pop\n        /* \"#utility.yul\":16258:16527   */\n      pop\n      pop\n      pop\n      jump\t// out\n        /* \"#utility.yul\":16533:16606   */\n    tag_144:\n        /* \"#utility.yul\":16578:16581   */\n      0x00\n        /* \"#utility.yul\":16533:16606   */\n      swap1\n      jump\t// out\n        /* \"#utility.yul\":16612:16801   */\n    tag_145:\n        /* \"#utility.yul\":16689:16721   */\n      tag_312\n      tag_144\n      jump\t// in\n    tag_312:\n        /* \"#utility.yul\":16730:16795   */\n      tag_313\n        /* \"#utility.yul\":16788:16794   */\n      dup2\n        /* \"#utility.yul\":16780:16786   */\n      dup5\n        /* \"#utility.yul\":16774:16778   */\n      dup5\n        /* \"#utility.yul\":16730:16795   */\n      tag_143\n      jump\t// in\n    tag_313:\n        /* \"#utility.yul\":16665:16801   */\n      pop\n        /* \"#utility.yul\":16612:16801   */\n      pop\n      pop\n      jump\t// out\n        /* \"#utility.yul\":16807:16993   */\n    tag_146:\n        /* \"#utility.yul\":16867:16987   */\n    tag_315:\n        /* \"#utility.yul\":16884:16887   */\n      dup2\n        /* \"#utility.yul\":16877:16882   */\n      dup2\n        /* \"#utility.yul\":16874:16888   */\n      lt\n        /* \"#utility.yul\":16867:16987   */\n      iszero\n      tag_317\n      jumpi\n        /* \"#utility.yul\":16938:16977   */\n      tag_318\n        /* \"#utility.yul\":16975:16976   */\n      0x00\n        /* \"#utility.yul\":16968:16973   */\n      dup3\n        /* \"#utility.yul\":16938:16977   */\n      tag_145\n      jump\t// in\n    tag_318:\n        /* \"#utility.yul\":16911:16912   */\n      0x01\n        /* \"#utility.yul\":16904:16909   */\n      dup2\n        /* \"#utility.yul\":16900:16913   */\n      add\n        /* \"#utility.yul\":16891:16913   */\n      swap1\n      pop\n        /* \"#utility.yul\":16867:16987   */\n      jump(tag_315)\n    tag_317:\n        /* \"#utility.yul\":16807:16993   */\n      pop\n      pop\n      jump\t// out\n        /* \"#utility.yul\":16999:17542   */\n    tag_147:\n        /* \"#utility.yul\":17100:17102   */\n      0x1f\n        /* \"#utility.yul\":17095:17098   */\n      dup3\n        /* \"#utility.yul\":17092:17103   */\n      gt\n        /* \"#utility.yul\":17089:17535   */\n      iszero\n      tag_320\n      jumpi\n        /* \"#utility.yul\":17134:17172   */\n      tag_321\n        /* \"#utility.yul\":17166:17171   */\n      dup2\n        /* \"#utility.yul\":17134:17172   */\n      tag_136\n      jump\t// in\n    tag_321:\n        /* \"#utility.yul\":17218:17247   */\n      tag_322\n        /* \"#utility.yul\":17236:17246   */\n      dup5\n        /* \"#utility.yul\":17218:17247   */\n      tag_137\n      jump\t// in\n    tag_322:\n        /* \"#utility.yul\":17208:17216   */\n      dup2\n        /* \"#utility.yul\":17204:17248   */\n      add\n        /* \"#utility.yul\":17401:17403   */\n      0x20\n        /* \"#utility.yul\":17389:17399   */\n      dup6\n        /* \"#utility.yul\":17386:17404   */\n      lt\n        /* \"#utility.yul\":17383:17432   */\n      iszero\n      tag_323\n      jumpi\n        /* \"#utility.yul\":17422:17430   */\n      dup2\n        /* \"#utility.yul\":17407:17430   */\n      swap1\n      pop\n        /* \"#utility.yul\":17383:17432   */\n    tag_323:\n        /* \"#utility.yul\":17445:17525   */\n      tag_324\n        /* \"#utility.yul\":17501:17523   */\n      tag_325\n        /* \"#utility.yul\":17519:17522   */\n      dup6\n        /* \"#utility.yul\":17501:17523   */\n      tag_137\n      jump\t// in\n    tag_325:\n        /* \"#utility.yul\":17491:17499   */\n      dup4\n        /* \"#utility.yul\":17487:17524   */\n      add\n        /* \"#utility.yul\":17474:17485   */\n      dup3\n        /* \"#utility.yul\":17445:17525   */\n      tag_146\n      jump\t// in\n    tag_324:\n        /* \"#utility.yul\":17104:17535   */\n      pop\n      pop\n        /* \"#utility.yul\":17089:17535   */\n    tag_320:\n        /* \"#utility.yul\":16999:17542   */\n      pop\n      pop\n      pop\n      jump\t// out\n        /* \"#utility.yul\":17548:17665   */\n    tag_148:\n        /* \"#utility.yul\":17602:17610   */\n      0x00\n        /* \"#utility.yul\":17652:17657   */\n      dup3\n        /* \"#utility.yul\":17646:17650   */\n      dup3\n        /* \"#utility.yul\":17642:17658   */\n      shr\n        /* \"#utility.yul\":17621:17658   */\n      swap1\n      pop\n        /* \"#utility.yul\":17548:17665   */\n      swap3\n      swap2\n      pop\n      pop\n      jump\t// out\n        /* \"#utility.yul\":17671:17840   */\n    tag_149:\n        /* \"#utility.yul\":17715:17721   */\n      0x00\n        /* \"#utility.yul\":17748:17799   */\n      tag_328\n        /* \"#utility.yul\":17796:17797   */\n      0x00\n        /* \"#utility.yul\":17792:17798   */\n      not\n        /* \"#utility.yul\":17784:17789   */\n      dup5\n        /* \"#utility.yul\":17781:17782   */\n      0x08\n        /* \"#utility.yul\":17777:17790   */\n      mul\n        /* \"#utility.yul\":17748:17799   */\n      tag_148\n      jump\t// in\n    tag_328:\n        /* \"#utility.yul\":17744:17800   */\n      not\n        /* \"#utility.yul\":17829:17833   */\n      dup1\n        /* \"#utility.yul\":17823:17827   */\n      dup4\n        /* \"#utility.yul\":17819:17834   */\n      and\n        /* \"#utility.yul\":17809:17834   */\n      swap2\n      pop\n        /* \"#utility.yul\":17722:17840   */\n      pop\n        /* \"#utility.yul\":17671:17840   */\n      swap3\n      swap2\n      pop\n      pop\n      jump\t// out\n        /* \"#utility.yul\":17845:18140   */\n    tag_150:\n        /* \"#utility.yul\":17921:17925   */\n      0x00\n        /* \"#utility.yul\":18067:18096   */\n      tag_330\n        /* \"#utility.yul\":18092:18095   */\n      dup4\n        /* \"#utility.yul\":18086:18090   */\n      dup4\n        /* \"#utility.yul\":18067:18096   */\n      tag_149\n      jump\t// in\n    tag_330:\n        /* \"#utility.yul\":18059:18096   */\n      swap2\n      pop\n        /* \"#utility.yul\":18129:18132   */\n      dup3\n        /* \"#utility.yul\":18126:18127   */\n      0x02\n        /* \"#utility.yul\":18122:18133   */\n      mul\n        /* \"#utility.yul\":18116:18120   */\n      dup3\n        /* \"#utility.yul\":18113:18134   */\n      or\n        /* \"#utility.yul\":18105:18134   */\n      swap1\n      pop\n        /* \"#utility.yul\":17845:18140   */\n      swap3\n      swap2\n      pop\n      pop\n      jump\t// out\n        /* \"#utility.yul\":18145:19540   */\n    tag_93:\n        /* \"#utility.yul\":18262:18299   */\n      tag_332\n        /* \"#utility.yul\":18295:18298   */\n      dup3\n        /* \"#utility.yul\":18262:18299   */\n      tag_99\n      jump\t// in\n    tag_332:\n        /* \"#utility.yul\":18364:18382   */\n      0xffffffffffffffff\n        /* \"#utility.yul\":18356:18362   */\n      dup2\n        /* \"#utility.yul\":18353:18383   */\n      gt\n        /* \"#utility.yul\":18350:18406   */\n      iszero\n      tag_333\n      jumpi\n        /* \"#utility.yul\":18386:18404   */\n      tag_334\n      tag_49\n      jump\t// in\n    tag_334:\n        /* \"#utility.yul\":18350:18406   */\n    tag_333:\n        /* \"#utility.yul\":18430:18468   */\n      tag_335\n        /* \"#utility.yul\":18462:18466   */\n      dup3\n        /* \"#utility.yul\":18456:18467   */\n      sload\n        /* \"#utility.yul\":18430:18468   */\n      tag_58\n      jump\t// in\n    tag_335:\n        /* \"#utility.yul\":18515:18582   */\n      tag_336\n        /* \"#utility.yul\":18575:18581   */\n      dup3\n        /* \"#utility.yul\":18567:18573   */\n      dup3\n        /* \"#utility.yul\":18561:18565   */\n      dup6\n        /* \"#utility.yul\":18515:18582   */\n      tag_147\n      jump\t// in\n    tag_336:\n        /* \"#utility.yul\":18609:18610   */\n      0x00\n        /* \"#utility.yul\":18633:18637   */\n      0x20\n        /* \"#utility.yul\":18620:18637   */\n      swap1\n      pop\n        /* \"#utility.yul\":18665:18667   */\n      0x1f\n        /* \"#utility.yul\":18657:18663   */\n      dup4\n        /* \"#utility.yul\":18654:18668   */\n      gt\n        /* \"#utility.yul\":18682:18683   */\n      0x01\n        /* \"#utility.yul\":18677:19295   */\n      dup2\n      eq\n      tag_338\n      jumpi\n        /* \"#utility.yul\":19339:19340   */\n      0x00\n        /* \"#utility.yul\":19356:19362   */\n      dup5\n        /* \"#utility.yul\":19353:19430   */\n      iszero\n      tag_339\n      jumpi\n        /* \"#utility.yul\":19405:19414   */\n      dup3\n        /* \"#utility.yul\":19400:19403   */\n      dup8\n        /* \"#utility.yul\":19396:19415   */\n      add\n        /* \"#utility.yul\":19390:19416   */\n      mload\n        /* \"#utility.yul\":19381:19416   */\n      swap1\n      pop\n        /* \"#utility.yul\":19353:19430   */\n    tag_339:\n        /* \"#utility.yul\":19456:19523   */\n      tag_340\n        /* \"#utility.yul\":19516:19522   */\n      dup6\n        /* \"#utility.yul\":19509:19514   */\n      dup3\n        /* \"#utility.yul\":19456:19523   */\n      tag_150\n      jump\t// in\n    tag_340:\n        /* \"#utility.yul\":19450:19454   */\n      dup7\n        /* \"#utility.yul\":19443:19524   */\n      sstore\n        /* \"#utility.yul\":19312:19534   */\n      pop\n        /* \"#utility.yul\":18647:19534   */\n      jump(tag_337)\n        /* \"#utility.yul\":18677:19295   */\n    tag_338:\n        /* \"#utility.yul\":18729:18733   */\n      0x1f\n        /* \"#utility.yul\":18725:18734   */\n      not\n        /* \"#utility.yul\":18717:18723   */\n      dup5\n        /* \"#utility.yul\":18713:18735   */\n      and\n        /* \"#utility.yul\":18763:18800   */\n      tag_341\n        /* \"#utility.yul\":18795:18799   */\n      dup7\n        /* \"#utility.yul\":18763:18800   */\n      tag_136\n      jump\t// in\n    tag_341:\n        /* \"#utility.yul\":18822:18823   */\n      0x00\n        /* \"#utility.yul\":18836:19044   */\n    tag_342:\n        /* \"#utility.yul\":18850:18857   */\n      dup3\n        /* \"#utility.yul\":18847:18848   */\n      dup2\n        /* \"#utility.yul\":18844:18858   */\n      lt\n        /* \"#utility.yul\":18836:19044   */\n      iszero\n      tag_344\n      jumpi\n        /* \"#utility.yul\":18929:18938   */\n      dup5\n        /* \"#utility.yul\":18924:18927   */\n      dup10\n        /* \"#utility.yul\":18920:18939   */\n      add\n        /* \"#utility.yul\":18914:18940   */\n      mload\n        /* \"#utility.yul\":18906:18912   */\n      dup3\n        /* \"#utility.yul\":18899:18941   */\n      sstore\n        /* \"#utility.yul\":18980:18981   */\n      0x01\n        /* \"#utility.yul\":18972:18978   */\n      dup3\n        /* \"#utility.yul\":18968:18982   */\n      add\n        /* \"#utility.yul\":18958:18982   */\n      swap2\n      pop\n        /* \"#utility.yul\":19027:19029   */\n      0x20\n        /* \"#utility.yul\":19016:19025   */\n      dup6\n        /* \"#utility.yul\":19012:19030   */\n      add\n        /* \"#utility.yul\":18999:19030   */\n      swap5\n      pop\n        /* \"#utility.yul\":18873:18877   */\n      0x20\n        /* \"#utility.yul\":18870:18871   */\n      dup2\n        /* \"#utility.yul\":18866:18878   */\n      add\n        /* \"#utility.yul\":18861:18878   */\n      swap1\n      pop\n        /* \"#utility.yul\":18836:19044   */\n      jump(tag_342)\n    tag_344:\n        /* \"#utility.yul\":19072:19078   */\n      dup7\n        /* \"#utility.yul\":19063:19070   */\n      dup4\n        /* \"#utility.yul\":19060:19079   */\n      lt\n        /* \"#utility.yul\":19057:19236   */\n      iszero\n      tag_345\n      jumpi\n        /* \"#utility.yul\":19130:19139   */\n      dup5\n        /* \"#utility.yul\":19125:19128   */\n      dup10\n        /* \"#utility.yul\":19121:19140   */\n      add\n        /* \"#utility.yul\":19115:19141   */\n      mload\n        /* \"#utility.yul\":19173:19221   */\n      tag_346\n        /* \"#utility.yul\":19215:19219   */\n      0x1f\n        /* \"#utility.yul\":19207:19213   */\n      dup10\n        /* \"#utility.yul\":19203:19220   */\n      and\n        /* \"#utility.yul\":19192:19201   */\n      dup3\n        /* \"#utility.yul\":19173:19221   */\n      tag_149\n      jump\t// in\n    tag_346:\n        /* \"#utility.yul\":19165:19171   */\n      dup4\n        /* \"#utility.yul\":19158:19222   */\n      sstore\n        /* \"#utility.yul\":19080:19236   */\n      pop\n        /* \"#utility.yul\":19057:19236   */\n    tag_345:\n        /* \"#utility.yul\":19282:19283   */\n      0x01\n        /* \"#utility.yul\":19278:19279   */\n      0x02\n        /* \"#utility.yul\":19270:19276   */\n      dup9\n        /* \"#utility.yul\":19266:19280   */\n      mul\n        /* \"#utility.yul\":19262:19284   */\n      add\n        /* \"#utility.yul\":19256:19260   */\n      dup9\n        /* \"#utility.yul\":19249:19285   */\n      sstore\n        /* \"#utility.yul\":18684:19295   */\n      pop\n      pop\n      pop\n        /* \"#utility.yul\":18647:19534   */\n    tag_337:\n      pop\n        /* \"#utility.yul\":18237:19540   */\n      pop\n      pop\n      pop\n        /* \"#utility.yul\":18145:19540   */\n      pop\n      pop\n      jump\t// out\n\n    auxdata: 0xa2646970667358221220bd4b4b627cf9d5afedf115a74fc336368515b32db303c9c76962152df3c2dfa564736f6c63430008120033\n}\n",
				"bytecode": {
					"linkReferences": {},
					"object": "608060405234801561001057600080fd5b506000600181905550611367806100286000396000f3fe608060405234801561001057600080fd5b50600436106100885760003560e01c806399b19ed31161005b57806399b19ed31461012b578063b9db15b414610147578063e0f6ef8714610177578063e9300c6c1461019557610088565b806302ee3a521461008d578063031e0535146100ab578063767bdff1146100c75780637acc0b20146100f7575b600080fd5b6100956101b1565b6040516100a29190610b28565b60405180910390f35b6100c560048036038101906100c09190610b8a565b610396565b005b6100e160048036038101906100dc9190610b8a565b61046a565b6040516100ee9190610bc6565b60405180910390f35b610111600480360381019061010c9190610b8a565b610496565b604051610122959493929190610c49565b60405180910390f35b61014560048036038101906101409190610b8a565b610581565b005b610161600480360381019061015c9190610b8a565b610655565b60405161016e9190610d19565b60405180910390f35b61017f610798565b60405161018c9190610d3b565b60405180910390f35b6101af60048036038101906101aa9190610e8b565b61079e565b005b6060600060015467ffffffffffffffff8111156101d1576101d0610d60565b5b60405190808252806020026020018201604052801561020a57816020015b6101f76108a4565b8152602001906001900390816101ef5790505b5090506000600190505b600154811161038e576000808281526020019081526020016000206040518060a00160405290816000820154815260200160018201805461025490610f16565b80601f016020809104026020016040519081016040528092919081815260200182805461028090610f16565b80156102cd5780601f106102a2576101008083540402835291602001916102cd565b820191906000526020600020905b8154815290600101906020018083116102b057829003601f168201915b50505050508152602001600282015481526020016003820160009054906101000a900473ffffffffffffffffffffffffffffffffffffffff1673ffffffffffffffffffffffffffffffffffffffff1673ffffffffffffffffffffffffffffffffffffffff1681526020016003820160149054906101000a900460ff1615151515815250508260018361035f9190610f76565b815181106103705761036f610faa565b5b6020026020010181905250808061038690610fd9565b915050610214565b508091505090565b3373ffffffffffffffffffffffffffffffffffffffff1660008083815260200190815260200160002060030160009054906101000a900473ffffffffffffffffffffffffffffffffffffffff1673ffffffffffffffffffffffffffffffffffffffff1614610439576040517f08c379a000000000000000000000000000000000000000000000000000000000815260040161043090611093565b60405180910390fd5b600080600083815260200190815260200160002060030160146101000a81548160ff02191690831515021790555050565b600080600083815260200190815260200160002060030160149054906101000a900460ff169050919050565b60006020528060005260406000206000915090508060000154908060010180546104bf90610f16565b80601f01602080910402602001604051908101604052809291908181526020018280546104eb90610f16565b80156105385780601f1061050d57610100808354040283529160200191610538565b820191906000526020600020905b81548152906001019060200180831161051b57829003601f168201915b5050505050908060020154908060030160009054906101000a900473ffffffffffffffffffffffffffffffffffffffff16908060030160149054906101000a900460ff16905085565b3373ffffffffffffffffffffffffffffffffffffffff1660008083815260200190815260200160002060030160009054906101000a900473ffffffffffffffffffffffffffffffffffffffff1673ffffffffffffffffffffffffffffffffffffffff1614610624576040517f08c379a000000000000000000000000000000000000000000000000000000000815260040161061b90611093565b60405180910390fd5b600160008083815260200190815260200160002060030160146101000a81548160ff02191690831515021790555050565b61065d6108a4565b6000808381526020019081526020016000206040518060a00160405290816000820154815260200160018201805461069490610f16565b80601f01602080910402602001604051908101604052809291908181526020018280546106c090610f16565b801561070d5780601f106106e25761010080835404028352916020019161070d565b820191906000526020600020905b8154815290600101906020018083116106f057829003601f168201915b50505050508152602001600282015481526020016003820160009054906101000a900473ffffffffffffffffffffffffffffffffffffffff1673ffffffffffffffffffffffffffffffffffffffff1673ffffffffffffffffffffffffffffffffffffffff1681526020016003820160149054906101000a900460ff1615151515815250509050919050565b60015481565b600160008154809291906107b190610fd9565b91905055506040518060a0016040528060015481526020018381526020018281526020013373ffffffffffffffffffffffffffffffffffffffff16815260200160011515815250600080600154815260200190815260200160002060008201518160000155602082015181600101908161082b919061125f565b506040820151816002015560608201518160030160006101000a81548173ffffffffffffffffffffffffffffffffffffffff021916908373ffffffffffffffffffffffffffffffffffffffff16021790555060808201518160030160146101000a81548160ff0219169083151502179055509050505050565b6040518060a00160405280600081526020016060815260200160008152602001600073ffffffffffffffffffffffffffffffffffffffff1681526020016000151581525090565b600081519050919050565b600082825260208201905092915050565b6000819050602082019050919050565b6000819050919050565b61092a81610917565b82525050565b600081519050919050565b600082825260208201905092915050565b60005b8381101561096a57808201518184015260208101905061094f565b60008484015250505050565b6000601f19601f8301169050919050565b600061099282610930565b61099c818561093b565b93506109ac81856020860161094c565b6109b581610976565b840191505092915050565b600073ffffffffffffffffffffffffffffffffffffffff82169050919050565b60006109eb826109c0565b9050919050565b6109fb816109e0565b82525050565b60008115159050919050565b610a1681610a01565b82525050565b600060a083016000830151610a346000860182610921565b5060208301518482036020860152610a4c8282610987565b9150506040830151610a616040860182610921565b506060830151610a7460608601826109f2565b506080830151610a876080860182610a0d565b508091505092915050565b6000610a9e8383610a1c565b905092915050565b6000602082019050919050565b6000610abe826108eb565b610ac881856108f6565b935083602082028501610ada85610907565b8060005b85811015610b165784840389528151610af78582610a92565b9450610b0283610aa6565b925060208a01995050600181019050610ade565b50829750879550505050505092915050565b60006020820190508181036000830152610b428184610ab3565b905092915050565b6000604051905090565b600080fd5b600080fd5b610b6781610917565b8114610b7257600080fd5b50565b600081359050610b8481610b5e565b92915050565b600060208284031215610ba057610b9f610b54565b5b6000610bae84828501610b75565b91505092915050565b610bc081610a01565b82525050565b6000602082019050610bdb6000830184610bb7565b92915050565b610bea81610917565b82525050565b600082825260208201905092915050565b6000610c0c82610930565b610c168185610bf0565b9350610c2681856020860161094c565b610c2f81610976565b840191505092915050565b610c43816109e0565b82525050565b600060a082019050610c5e6000830188610be1565b8181036020830152610c708187610c01565b9050610c7f6040830186610be1565b610c8c6060830185610c3a565b610c996080830184610bb7565b9695505050505050565b600060a083016000830151610cbb6000860182610921565b5060208301518482036020860152610cd38282610987565b9150506040830151610ce86040860182610921565b506060830151610cfb60608601826109f2565b506080830151610d0e6080860182610a0d565b508091505092915050565b60006020820190508181036000830152610d338184610ca3565b905092915050565b6000602082019050610d506000830184610be1565b92915050565b600080fd5b600080fd5b7f4e487b7100000000000000000000000000000000000000000000000000000000600052604160045260246000fd5b610d9882610976565b810181811067ffffffffffffffff82111715610db757610db6610d60565b5b80604052505050565b6000610dca610b4a565b9050610dd68282610d8f565b919050565b600067ffffffffffffffff821115610df657610df5610d60565b5b610dff82610976565b9050602081019050919050565b82818337600083830152505050565b6000610e2e610e2984610ddb565b610dc0565b905082815260208101848484011115610e4a57610e49610d5b565b5b610e55848285610e0c565b509392505050565b600082601f830112610e7257610e71610d56565b5b8135610e82848260208601610e1b565b91505092915050565b60008060408385031215610ea257610ea1610b54565b5b600083013567ffffffffffffffff811115610ec057610ebf610b59565b5b610ecc85828601610e5d565b9250506020610edd85828601610b75565b9150509250929050565b7f4e487b7100000000000000000000000000000000000000000000000000000000600052602260045260246000fd5b60006002820490506001821680610f2e57607f821691505b602082108103610f4157610f40610ee7565b5b50919050565b7f4e487b7100000000000000000000000000000000000000000000000000000000600052601160045260246000fd5b6000610f8182610917565b9150610f8c83610917565b9250828203905081811115610fa457610fa3610f47565b5b92915050565b7f4e487b7100000000000000000000000000000000000000000000000000000000600052603260045260246000fd5b6000610fe482610917565b91507fffffffffffffffffffffffffffffffffffffffffffffffffffffffffffffffff820361101657611015610f47565b5b600182019050919050565b7f4f6e6c79207468652070726f64756374206f776e65722063616e20766572696660008201527f792061757468656e746963697479000000000000000000000000000000000000602082015250565b600061107d602e83610bf0565b915061108882611021565b604082019050919050565b600060208201905081810360008301526110ac81611070565b9050919050565b60008190508160005260206000209050919050565b60006020601f8301049050919050565b600082821b905092915050565b6000600883026111157fffffffffffffffffffffffffffffffffffffffffffffffffffffffffffffffff826110d8565b61111f86836110d8565b95508019841693508086168417925050509392505050565b6000819050919050565b600061115c61115761115284610917565b611137565b610917565b9050919050565b6000819050919050565b61117683611141565b61118a61118282611163565b8484546110e5565b825550505050565b600090565b61119f611192565b6111aa81848461116d565b505050565b5b818110156111ce576111c3600082611197565b6001810190506111b0565b5050565b601f821115611213576111e4816110b3565b6111ed846110c8565b810160208510156111fc578190505b611210611208856110c8565b8301826111af565b50505b505050565b600082821c905092915050565b600061123660001984600802611218565b1980831691505092915050565b600061124f8383611225565b9150826002028217905092915050565b61126882610930565b67ffffffffffffffff81111561128157611280610d60565b5b61128b8254610f16565b6112968282856111d2565b600060209050601f8311600181146112c957600084156112b7578287015190505b6112c18582611243565b865550611329565b601f1984166112d7866110b3565b60005b828110156112ff578489015182556001820191506020850194506020810190506112da565b8683101561131c5784890151611318601f891682611225565b8355505b6001600288020188555050505b50505050505056fea2646970667358221220bd4b4b627cf9d5afedf115a74fc336368515b32db303c9c76962152df3c2dfa564736f6c63430008120033",
					"opcodes": "PUSH1 0x80 PUSH1 0x40 MSTORE CALLVALUE DUP1 ISZERO PUSH2 0x10 JUMPI PUSH1 0x0 DUP1 REVERT JUMPDEST POP PUSH1 0x0 PUSH1 0x1 DUP2 SWAP1 SSTORE POP PUSH2 0x1367 DUP1 PUSH2 0x28 PUSH1 0x0 CODECOPY PUSH1 0x0 RETURN INVALID PUSH1 0x80 PUSH1 0x40 MSTORE CALLVALUE DUP1 ISZERO PUSH2 0x10 JUMPI PUSH1 0x0 DUP1 REVERT JUMPDEST POP PUSH1 0x4 CALLDATASIZE LT PUSH2 0x88 JUMPI PUSH1 0x0 CALLDATALOAD PUSH1 0xE0 SHR DUP1 PUSH4 0x99B19ED3 GT PUSH2 0x5B JUMPI DUP1 PUSH4 0x99B19ED3 EQ PUSH2 0x12B JUMPI DUP1 PUSH4 0xB9DB15B4 EQ PUSH2 0x147 JUMPI DUP1 PUSH4 0xE0F6EF87 EQ PUSH2 0x177 JUMPI DUP1 PUSH4 0xE9300C6C EQ PUSH2 0x195 JUMPI PUSH2 0x88 JUMP JUMPDEST DUP1 PUSH4 0x2EE3A52 EQ PUSH2 0x8D JUMPI DUP1 PUSH4 0x31E0535 EQ PUSH2 0xAB JUMPI DUP1 PUSH4 0x767BDFF1 EQ PUSH2 0xC7 JUMPI DUP1 PUSH4 0x7ACC0B20 EQ PUSH2 0xF7 JUMPI JUMPDEST PUSH1 0x0 DUP1 REVERT JUMPDEST PUSH2 0x95 PUSH2 0x1B1 JUMP JUMPDEST PUSH1 0x40 MLOAD PUSH2 0xA2 SWAP2 SWAP1 PUSH2 0xB28 JUMP JUMPDEST PUSH1 0x40 MLOAD DUP1 SWAP2 SUB SWAP1 RETURN JUMPDEST PUSH2 0xC5 PUSH1 0x4 DUP1 CALLDATASIZE SUB DUP2 ADD SWAP1 PUSH2 0xC0 SWAP2 SWAP1 PUSH2 0xB8A JUMP JUMPDEST PUSH2 0x396 JUMP JUMPDEST STOP JUMPDEST PUSH2 0xE1 PUSH1 0x4 DUP1 CALLDATASIZE SUB DUP2 ADD SWAP1 PUSH2 0xDC SWAP2 SWAP1 PUSH2 0xB8A JUMP JUMPDEST PUSH2 0x46A JUMP JUMPDEST PUSH1 0x40 MLOAD PUSH2 0xEE SWAP2 SWAP1 PUSH2 0xBC6 JUMP JUMPDEST PUSH1 0x40 MLOAD DUP1 SWAP2 SUB SWAP1 RETURN JUMPDEST PUSH2 0x111 PUSH1 0x4 DUP1 CALLDATASIZE SUB DUP2 ADD SWAP1 PUSH2 0x10C SWAP2 SWAP1 PUSH2 0xB8A JUMP JUMPDEST PUSH2 0x496 JUMP JUMPDEST PUSH1 0x40 MLOAD PUSH2 0x122 SWAP6 SWAP5 SWAP4 SWAP3 SWAP2 SWAP1 PUSH2 0xC49 JUMP JUMPDEST PUSH1 0x40 MLOAD DUP1 SWAP2 SUB SWAP1 RETURN JUMPDEST PUSH2 0x145 PUSH1 0x4 DUP1 CALLDATASIZE SUB DUP2 ADD SWAP1 PUSH2 0x140 SWAP2 SWAP1 PUSH2 0xB8A JUMP JUMPDEST PUSH2 0x581 JUMP JUMPDEST STOP JUMPDEST PUSH2 0x161 PUSH1 0x4 DUP1 CALLDATASIZE SUB DUP2 ADD SWAP1 PUSH2 0x15C SWAP2 SWAP1 PUSH2 0xB8A JUMP JUMPDEST PUSH2 0x655 JUMP JUMPDEST PUSH1 0x40 MLOAD PUSH2 0x16E SWAP2 SWAP1 PUSH2 0xD19 JUMP JUMPDEST PUSH1 0x40 MLOAD DUP1 SWAP2 SUB SWAP1 RETURN JUMPDEST PUSH2 0x17F PUSH2 0x798 JUMP JUMPDEST PUSH1 0x40 MLOAD PUSH2 0x18C SWAP2 SWAP1 PUSH2 0xD3B JUMP JUMPDEST PUSH1 0x40 MLOAD DUP1 SWAP2 SUB SWAP1 RETURN JUMPDEST PUSH2 0x1AF PUSH1 0x4 DUP1 CALLDATASIZE SUB DUP2 ADD SWAP1 PUSH2 0x1AA SWAP2 SWAP1 PUSH2 0xE8B JUMP JUMPDEST PUSH2 0x79E JUMP JUMPDEST STOP JUMPDEST PUSH1 0x60 PUSH1 0x0 PUSH1 0x1 SLOAD PUSH8 0xFFFFFFFFFFFFFFFF DUP2 GT ISZERO PUSH2 0x1D1 JUMPI PUSH2 0x1D0 PUSH2 0xD60 JUMP JUMPDEST JUMPDEST PUSH1 0x40 MLOAD SWAP1 DUP1 DUP3 MSTORE DUP1 PUSH1 0x20 MUL PUSH1 0x20 ADD DUP3 ADD PUSH1 0x40 MSTORE DUP1 ISZERO PUSH2 0x20A JUMPI DUP2 PUSH1 0x20 ADD JUMPDEST PUSH2 0x1F7 PUSH2 0x8A4 JUMP JUMPDEST DUP2 MSTORE PUSH1 0x20 ADD SWAP1 PUSH1 0x1 SWAP1 SUB SWAP1 DUP2 PUSH2 0x1EF JUMPI SWAP1 POP JUMPDEST POP SWAP1 POP PUSH1 0x0 PUSH1 0x1 SWAP1 POP JUMPDEST PUSH1 0x1 SLOAD DUP2 GT PUSH2 0x38E JUMPI PUSH1 0x0 DUP1 DUP3 DUP2 MSTORE PUSH1 0x20 ADD SWAP1 DUP2 MSTORE PUSH1 0x20 ADD PUSH1 0x0 KECCAK256 PUSH1 0x40 MLOAD DUP1 PUSH1 0xA0 ADD PUSH1 0x40 MSTORE SWAP1 DUP2 PUSH1 0x0 DUP3 ADD SLOAD DUP2 MSTORE PUSH1 0x20 ADD PUSH1 0x1 DUP3 ADD DUP1 SLOAD PUSH2 0x254 SWAP1 PUSH2 0xF16 JUMP JUMPDEST DUP1 PUSH1 0x1F ADD PUSH1 0x20 DUP1 SWAP2 DIV MUL PUSH1 0x20 ADD PUSH1 0x40 MLOAD SWAP1 DUP2 ADD PUSH1 0x40 MSTORE DUP1 SWAP3 SWAP2 SWAP1 DUP2 DUP2 MSTORE PUSH1 0x20 ADD DUP3 DUP1 SLOAD PUSH2 0x280 SWAP1 PUSH2 0xF16 JUMP JUMPDEST DUP1 ISZERO PUSH2 0x2CD JUMPI DUP1 PUSH1 0x1F LT PUSH2 0x2A2 JUMPI PUSH2 0x100 DUP1 DUP4 SLOAD DIV MUL DUP4 MSTORE SWAP2 PUSH1 0x20 ADD SWAP2 PUSH2 0x2CD JUMP JUMPDEST DUP3 ADD SWAP2 SWAP1 PUSH1 0x0 MSTORE PUSH1 0x20 PUSH1 0x0 KECCAK256 SWAP1 JUMPDEST DUP2 SLOAD DUP2 MSTORE SWAP1 PUSH1 0x1 ADD SWAP1 PUSH1 0x20 ADD DUP1 DUP4 GT PUSH2 0x2B0 JUMPI DUP3 SWAP1 SUB PUSH1 0x1F AND DUP3 ADD SWAP2 JUMPDEST POP POP POP POP POP DUP2 MSTORE PUSH1 0x20 ADD PUSH1 0x2 DUP3 ADD SLOAD DUP2 MSTORE PUSH1 0x20 ADD PUSH1 0x3 DUP3 ADD PUSH1 0x0 SWAP1 SLOAD SWAP1 PUSH2 0x100 EXP SWAP1 DIV PUSH20 0xFFFFFFFFFFFFFFFFFFFFFFFFFFFFFFFFFFFFFFFF AND PUSH20 0xFFFFFFFFFFFFFFFFFFFFFFFFFFFFFFFFFFFFFFFF AND PUSH20 0xFFFFFFFFFFFFFFFFFFFFFFFFFFFFFFFFFFFFFFFF AND DUP2 MSTORE PUSH1 0x20 ADD PUSH1 0x3 DUP3 ADD PUSH1 0x14 SWAP1 SLOAD SWAP1 PUSH2 0x100 EXP SWAP1 DIV PUSH1 0xFF AND ISZERO ISZERO ISZERO ISZERO DUP2 MSTORE POP POP DUP3 PUSH1 0x1 DUP4 PUSH2 0x35F SWAP2 SWAP1 PUSH2 0xF76 JUMP JUMPDEST DUP2 MLOAD DUP2 LT PUSH2 0x370 JUMPI PUSH2 0x36F PUSH2 0xFAA JUMP JUMPDEST JUMPDEST PUSH1 0x20 MUL PUSH1 0x20 ADD ADD DUP2 SWAP1 MSTORE POP DUP1 DUP1 PUSH2 0x386 SWAP1 PUSH2 0xFD9 JUMP JUMPDEST SWAP2 POP POP PUSH2 0x214 JUMP JUMPDEST POP DUP1 SWAP2 POP POP SWAP1 JUMP JUMPDEST CALLER PUSH20 0xFFFFFFFFFFFFFFFFFFFFFFFFFFFFFFFFFFFFFFFF AND PUSH1 0x0 DUP1 DUP4 DUP2 MSTORE PUSH1 0x20 ADD SWAP1 DUP2 MSTORE PUSH1 0x20 ADD PUSH1 0x0 KECCAK256 PUSH1 0x3 ADD PUSH1 0x0 SWAP1 SLOAD SWAP1 PUSH2 0x100 EXP SWAP1 DIV PUSH20 0xFFFFFFFFFFFFFFFFFFFFFFFFFFFFFFFFFFFFFFFF AND PUSH20 0xFFFFFFFFFFFFFFFFFFFFFFFFFFFFFFFFFFFFFFFF AND EQ PUSH2 0x439 JUMPI PUSH1 0x40 MLOAD PUSH32 0x8C379A000000000000000000000000000000000000000000000000000000000 DUP2 MSTORE PUSH1 0x4 ADD PUSH2 0x430 SWAP1 PUSH2 0x1093 JUMP JUMPDEST PUSH1 0x40 MLOAD DUP1 SWAP2 SUB SWAP1 REVERT JUMPDEST PUSH1 0x0 DUP1 PUSH1 0x0 DUP4 DUP2 MSTORE PUSH1 0x20 ADD SWAP1 DUP2 MSTORE PUSH1 0x20 ADD PUSH1 0x0 KECCAK256 PUSH1 0x3 ADD PUSH1 0x14 PUSH2 0x100 EXP DUP2 SLOAD DUP2 PUSH1 0xFF MUL NOT AND SWAP1 DUP4 ISZERO ISZERO MUL OR SWAP1 SSTORE POP POP JUMP JUMPDEST PUSH1 0x0 DUP1 PUSH1 0x0 DUP4 DUP2 MSTORE PUSH1 0x20 ADD SWAP1 DUP2 MSTORE PUSH1 0x20 ADD PUSH1 0x0 KECCAK256 PUSH1 0x3 ADD PUSH1 0x14 SWAP1 SLOAD SWAP1 PUSH2 0x100 EXP SWAP1 DIV PUSH1 0xFF AND SWAP1 POP SWAP2 SWAP1 POP JUMP JUMPDEST PUSH1 0x0 PUSH1 0x20 MSTORE DUP1 PUSH1 0x0 MSTORE PUSH1 0x40 PUSH1 0x0 KECCAK256 PUSH1 0x0 SWAP2 POP SWAP1 POP DUP1 PUSH1 0x0 ADD SLOAD SWAP1 DUP1 PUSH1 0x1 ADD DUP1 SLOAD PUSH2 0x4BF SWAP1 PUSH2 0xF16 JUMP JUMPDEST DUP1 PUSH1 0x1F ADD PUSH1 0x20 DUP1 SWAP2 DIV MUL PUSH1 0x20 ADD PUSH1 0x40 MLOAD SWAP1 DUP2 ADD PUSH1 0x40 MSTORE DUP1 SWAP3 SWAP2 SWAP1 DUP2 DUP2 MSTORE PUSH1 0x20 ADD DUP3 DUP1 SLOAD PUSH2 0x4EB SWAP1 PUSH2 0xF16 JUMP JUMPDEST DUP1 ISZERO PUSH2 0x538 JUMPI DUP1 PUSH1 0x1F LT PUSH2 0x50D JUMPI PUSH2 0x100 DUP1 DUP4 SLOAD DIV MUL DUP4 MSTORE SWAP2 PUSH1 0x20 ADD SWAP2 PUSH2 0x538 JUMP JUMPDEST DUP3 ADD SWAP2 SWAP1 PUSH1 0x0 MSTORE PUSH1 0x20 PUSH1 0x0 KECCAK256 SWAP1 JUMPDEST DUP2 SLOAD DUP2 MSTORE SWAP1 PUSH1 0x1 ADD SWAP1 PUSH1 0x20 ADD DUP1 DUP4 GT PUSH2 0x51B JUMPI DUP3 SWAP1 SUB PUSH1 0x1F AND DUP3 ADD SWAP2 JUMPDEST POP POP POP POP POP SWAP1 DUP1 PUSH1 0x2 ADD SLOAD SWAP1 DUP1 PUSH1 0x3 ADD PUSH1 0x0 SWAP1 SLOAD SWAP1 PUSH2 0x100 EXP SWAP1 DIV PUSH20 0xFFFFFFFFFFFFFFFFFFFFFFFFFFFFFFFFFFFFFFFF AND SWAP1 DUP1 PUSH1 0x3 ADD PUSH1 0x14 SWAP1 SLOAD SWAP1 PUSH2 0x100 EXP SWAP1 DIV PUSH1 0xFF AND SWAP1 POP DUP6 JUMP JUMPDEST CALLER PUSH20 0xFFFFFFFFFFFFFFFFFFFFFFFFFFFFFFFFFFFFFFFF AND PUSH1 0x0 DUP1 DUP4 DUP2 MSTORE PUSH1 0x20 ADD SWAP1 DUP2 MSTORE PUSH1 0x20 ADD PUSH1 0x0 KECCAK256 PUSH1 0x3 ADD PUSH1 0x0 SWAP1 SLOAD SWAP1 PUSH2 0x100 EXP SWAP1 DIV PUSH20 0xFFFFFFFFFFFFFFFFFFFFFFFFFFFFFFFFFFFFFFFF AND PUSH20 0xFFFFFFFFFFFFFFFFFFFFFFFFFFFFFFFFFFFFFFFF AND EQ PUSH2 0x624 JUMPI PUSH1 0x40 MLOAD PUSH32 0x8C379A000000000000000000000000000000000000000000000000000000000 DUP2 MSTORE PUSH1 0x4 ADD PUSH2 0x61B SWAP1 PUSH2 0x1093 JUMP JUMPDEST PUSH1 0x40 MLOAD DUP1 SWAP2 SUB SWAP1 REVERT JUMPDEST PUSH1 0x1 PUSH1 0x0 DUP1 DUP4 DUP2 MSTORE PUSH1 0x20 ADD SWAP1 DUP2 MSTORE PUSH1 0x20 ADD PUSH1 0x0 KECCAK256 PUSH1 0x3 ADD PUSH1 0x14 PUSH2 0x100 EXP DUP2 SLOAD DUP2 PUSH1 0xFF MUL NOT AND SWAP1 DUP4 ISZERO ISZERO MUL OR SWAP1 SSTORE POP POP JUMP JUMPDEST PUSH2 0x65D PUSH2 0x8A4 JUMP JUMPDEST PUSH1 0x0 DUP1 DUP4 DUP2 MSTORE PUSH1 0x20 ADD SWAP1 DUP2 MSTORE PUSH1 0x20 ADD PUSH1 0x0 KECCAK256 PUSH1 0x40 MLOAD DUP1 PUSH1 0xA0 ADD PUSH1 0x40 MSTORE SWAP1 DUP2 PUSH1 0x0 DUP3 ADD SLOAD DUP2 MSTORE PUSH1 0x20 ADD PUSH1 0x1 DUP3 ADD DUP1 SLOAD PUSH2 0x694 SWAP1 PUSH2 0xF16 JUMP JUMPDEST DUP1 PUSH1 0x1F ADD PUSH1 0x20 DUP1 SWAP2 DIV MUL PUSH1 0x20 ADD PUSH1 0x40 MLOAD SWAP1 DUP2 ADD PUSH1 0x40 MSTORE DUP1 SWAP3 SWAP2 SWAP1 DUP2 DUP2 MSTORE PUSH1 0x20 ADD DUP3 DUP1 SLOAD PUSH2 0x6C0 SWAP1 PUSH2 0xF16 JUMP JUMPDEST DUP1 ISZERO PUSH2 0x70D JUMPI DUP1 PUSH1 0x1F LT PUSH2 0x6E2 JUMPI PUSH2 0x100 DUP1 DUP4 SLOAD DIV MUL DUP4 MSTORE SWAP2 PUSH1 0x20 ADD SWAP2 PUSH2 0x70D JUMP JUMPDEST DUP3 ADD SWAP2 SWAP1 PUSH1 0x0 MSTORE PUSH1 0x20 PUSH1 0x0 KECCAK256 SWAP1 JUMPDEST DUP2 SLOAD DUP2 MSTORE SWAP1 PUSH1 0x1 ADD SWAP1 PUSH1 0x20 ADD DUP1 DUP4 GT PUSH2 0x6F0 JUMPI DUP3 SWAP1 SUB PUSH1 0x1F AND DUP3 ADD SWAP2 JUMPDEST POP POP POP POP POP DUP2 MSTORE PUSH1 0x20 ADD PUSH1 0x2 DUP3 ADD SLOAD DUP2 MSTORE PUSH1 0x20 ADD PUSH1 0x3 DUP3 ADD PUSH1 0x0 SWAP1 SLOAD SWAP1 PUSH2 0x100 EXP SWAP1 DIV PUSH20 0xFFFFFFFFFFFFFFFFFFFFFFFFFFFFFFFFFFFFFFFF AND PUSH20 0xFFFFFFFFFFFFFFFFFFFFFFFFFFFFFFFFFFFFFFFF AND PUSH20 0xFFFFFFFFFFFFFFFFFFFFFFFFFFFFFFFFFFFFFFFF AND DUP2 MSTORE PUSH1 0x20 ADD PUSH1 0x3 DUP3 ADD PUSH1 0x14 SWAP1 SLOAD SWAP1 PUSH2 0x100 EXP SWAP1 DIV PUSH1 0xFF AND ISZERO ISZERO ISZERO ISZERO DUP2 MSTORE POP POP SWAP1 POP SWAP2 SWAP1 POP JUMP JUMPDEST PUSH1 0x1 SLOAD DUP2 JUMP JUMPDEST PUSH1 0x1 PUSH1 0x0 DUP2 SLOAD DUP1 SWAP3 SWAP2 SWAP1 PUSH2 0x7B1 SWAP1 PUSH2 0xFD9 JUMP JUMPDEST SWAP2 SWAP1 POP SSTORE POP PUSH1 0x40 MLOAD DUP1 PUSH1 0xA0 ADD PUSH1 0x40 MSTORE DUP1 PUSH1 0x1 SLOAD DUP2 MSTORE PUSH1 0x20 ADD DUP4 DUP2 MSTORE PUSH1 0x20 ADD DUP3 DUP2 MSTORE PUSH1 0x20 ADD CALLER PUSH20 0xFFFFFFFFFFFFFFFFFFFFFFFFFFFFFFFFFFFFFFFF AND DUP2 MSTORE PUSH1 0x20 ADD PUSH1 0x1 ISZERO ISZERO DUP2 MSTORE POP PUSH1 0x0 DUP1 PUSH1 0x1 SLOAD DUP2 MSTORE PUSH1 0x20 ADD SWAP1 DUP2 MSTORE PUSH1 0x20 ADD PUSH1 0x0 KECCAK256 PUSH1 0x0 DUP3 ADD MLOAD DUP2 PUSH1 0x0 ADD SSTORE PUSH1 0x20 DUP3 ADD MLOAD DUP2 PUSH1 0x1 ADD SWAP1 DUP2 PUSH2 0x82B SWAP2 SWAP1 PUSH2 0x125F JUMP JUMPDEST POP PUSH1 0x40 DUP3 ADD MLOAD DUP2 PUSH1 0x2 ADD SSTORE PUSH1 0x60 DUP3 ADD MLOAD DUP2 PUSH1 0x3 ADD PUSH1 0x0 PUSH2 0x100 EXP DUP2 SLOAD DUP2 PUSH20 0xFFFFFFFFFFFFFFFFFFFFFFFFFFFFFFFFFFFFFFFF MUL NOT AND SWAP1 DUP4 PUSH20 0xFFFFFFFFFFFFFFFFFFFFFFFFFFFFFFFFFFFFFFFF AND MUL OR SWAP1 SSTORE POP PUSH1 0x80 DUP3 ADD MLOAD DUP2 PUSH1 0x3 ADD PUSH1 0x14 PUSH2 0x100 EXP DUP2 SLOAD DUP2 PUSH1 0xFF MUL NOT AND SWAP1 DUP4 ISZERO ISZERO MUL OR SWAP1 SSTORE POP SWAP1 POP POP POP POP JUMP JUMPDEST PUSH1 0x40 MLOAD DUP1 PUSH1 0xA0 ADD PUSH1 0x40 MSTORE DUP1 PUSH1 0x0 DUP2 MSTORE PUSH1 0x20 ADD PUSH1 0x60 DUP2 MSTORE PUSH1 0x20 ADD PUSH1 0x0 DUP2 MSTORE PUSH1 0x20 ADD PUSH1 0x0 PUSH20 0xFFFFFFFFFFFFFFFFFFFFFFFFFFFFFFFFFFFFFFFF AND DUP2 MSTORE PUSH1 0x20 ADD PUSH1 0x0 ISZERO ISZERO DUP2 MSTORE POP SWAP1 JUMP JUMPDEST PUSH1 0x0 DUP2 MLOAD SWAP1 POP SWAP2 SWAP1 POP JUMP JUMPDEST PUSH1 0x0 DUP3 DUP3 MSTORE PUSH1 0x20 DUP3 ADD SWAP1 POP SWAP3 SWAP2 POP POP JUMP JUMPDEST PUSH1 0x0 DUP2 SWAP1 POP PUSH1 0x20 DUP3 ADD SWAP1 POP SWAP2 SWAP1 POP JUMP JUMPDEST PUSH1 0x0 DUP2 SWAP1 POP SWAP2 SWAP1 POP JUMP JUMPDEST PUSH2 0x92A DUP2 PUSH2 0x917 JUMP JUMPDEST DUP3 MSTORE POP POP JUMP JUMPDEST PUSH1 0x0 DUP2 MLOAD SWAP1 POP SWAP2 SWAP1 POP JUMP JUMPDEST PUSH1 0x0 DUP3 DUP3 MSTORE PUSH1 0x20 DUP3 ADD SWAP1 POP SWAP3 SWAP2 POP POP JUMP JUMPDEST PUSH1 0x0 JUMPDEST DUP4 DUP2 LT ISZERO PUSH2 0x96A JUMPI DUP1 DUP3 ADD MLOAD DUP2 DUP5 ADD MSTORE PUSH1 0x20 DUP2 ADD SWAP1 POP PUSH2 0x94F JUMP JUMPDEST PUSH1 0x0 DUP5 DUP5 ADD MSTORE POP POP POP POP JUMP JUMPDEST PUSH1 0x0 PUSH1 0x1F NOT PUSH1 0x1F DUP4 ADD AND SWAP1 POP SWAP2 SWAP1 POP JUMP JUMPDEST PUSH1 0x0 PUSH2 0x992 DUP3 PUSH2 0x930 JUMP JUMPDEST PUSH2 0x99C DUP2 DUP6 PUSH2 0x93B JUMP JUMPDEST SWAP4 POP PUSH2 0x9AC DUP2 DUP6 PUSH1 0x20 DUP7 ADD PUSH2 0x94C JUMP JUMPDEST PUSH2 0x9B5 DUP2 PUSH2 0x976 JUMP JUMPDEST DUP5 ADD SWAP2 POP POP SWAP3 SWAP2 POP POP JUMP JUMPDEST PUSH1 0x0 PUSH20 0xFFFFFFFFFFFFFFFFFFFFFFFFFFFFFFFFFFFFFFFF DUP3 AND SWAP1 POP SWAP2 SWAP1 POP JUMP JUMPDEST PUSH1 0x0 PUSH2 0x9EB DUP3 PUSH2 0x9C0 JUMP JUMPDEST SWAP1 POP SWAP2 SWAP1 POP JUMP JUMPDEST PUSH2 0x9FB DUP2 PUSH2 0x9E0 JUMP JUMPDEST DUP3 MSTORE POP POP JUMP JUMPDEST PUSH1 0x0 DUP2 ISZERO ISZERO SWAP1 POP SWAP2 SWAP1 POP JUMP JUMPDEST PUSH2 0xA16 DUP2 PUSH2 0xA01 JUMP JUMPDEST DUP3 MSTORE POP POP JUMP JUMPDEST PUSH1 0x0 PUSH1 0xA0 DUP4 ADD PUSH1 0x0 DUP4 ADD MLOAD PUSH2 0xA34 PUSH1 0x0 DUP7 ADD DUP3 PUSH2 0x921 JUMP JUMPDEST POP PUSH1 0x20 DUP4 ADD MLOAD DUP5 DUP3 SUB PUSH1 0x20 DUP7 ADD MSTORE PUSH2 0xA4C DUP3 DUP3 PUSH2 0x987 JUMP JUMPDEST SWAP2 POP POP PUSH1 0x40 DUP4 ADD MLOAD PUSH2 0xA61 PUSH1 0x40 DUP7 ADD DUP3 PUSH2 0x921 JUMP JUMPDEST POP PUSH1 0x60 DUP4 ADD MLOAD PUSH2 0xA74 PUSH1 0x60 DUP7 ADD DUP3 PUSH2 0x9F2 JUMP JUMPDEST POP PUSH1 0x80 DUP4 ADD MLOAD PUSH2 0xA87 PUSH1 0x80 DUP7 ADD DUP3 PUSH2 0xA0D JUMP JUMPDEST POP DUP1 SWAP2 POP POP SWAP3 SWAP2 POP POP JUMP JUMPDEST PUSH1 0x0 PUSH2 0xA9E DUP4 DUP4 PUSH2 0xA1C JUMP JUMPDEST SWAP1 POP SWAP3 SWAP2 POP POP JUMP JUMPDEST PUSH1 0x0 PUSH1 0x20 DUP3 ADD SWAP1 POP SWAP2 SWAP1 POP JUMP JUMPDEST PUSH1 0x0 PUSH2 0xABE DUP3 PUSH2 0x8EB JUMP JUMPDEST PUSH2 0xAC8 DUP2 DUP6 PUSH2 0x8F6 JUMP JUMPDEST SWAP4 POP DUP4 PUSH1 0x20 DUP3 MUL DUP6 ADD PUSH2 0xADA DUP6 PUSH2 0x907 JUMP JUMPDEST DUP1 PUSH1 0x0 JUMPDEST DUP6 DUP2 LT ISZERO PUSH2 0xB16 JUMPI DUP5 DUP5 SUB DUP10 MSTORE DUP2 MLOAD PUSH2 0xAF7 DUP6 DUP3 PUSH2 0xA92 JUMP JUMPDEST SWAP5 POP PUSH2 0xB02 DUP4 PUSH2 0xAA6 JUMP JUMPDEST SWAP3 POP PUSH1 0x20 DUP11 ADD SWAP10 POP POP PUSH1 0x1 DUP2 ADD SWAP1 POP PUSH2 0xADE JUMP JUMPDEST POP DUP3 SWAP8 POP DUP8 SWAP6 POP POP POP POP POP POP SWAP3 SWAP2 POP POP JUMP JUMPDEST PUSH1 0x0 PUSH1 0x20 DUP3 ADD SWAP1 POP DUP2 DUP2 SUB PUSH1 0x0 DUP4 ADD MSTORE PUSH2 0xB42 DUP2 DUP5 PUSH2 0xAB3 JUMP JUMPDEST SWAP1 POP SWAP3 SWAP2 POP POP JUMP JUMPDEST PUSH1 0x0 PUSH1 0x40 MLOAD SWAP1 POP SWAP1 JUMP JUMPDEST PUSH1 0x0 DUP1 REVERT JUMPDEST PUSH1 0x0 DUP1 REVERT JUMPDEST PUSH2 0xB67 DUP2 PUSH2 0x917 JUMP JUMPDEST DUP2 EQ PUSH2 0xB72 JUMPI PUSH1 0x0 DUP1 REVERT JUMPDEST POP JUMP JUMPDEST PUSH1 0x0 DUP2 CALLDATALOAD SWAP1 POP PUSH2 0xB84 DUP2 PUSH2 0xB5E JUMP JUMPDEST SWAP3 SWAP2 POP POP JUMP JUMPDEST PUSH1 0x0 PUSH1 0x20 DUP3 DUP5 SUB SLT ISZERO PUSH2 0xBA0 JUMPI PUSH2 0xB9F PUSH2 0xB54 JUMP JUMPDEST JUMPDEST PUSH1 0x0 PUSH2 0xBAE DUP5 DUP3 DUP6 ADD PUSH2 0xB75 JUMP JUMPDEST SWAP2 POP POP SWAP3 SWAP2 POP POP JUMP JUMPDEST PUSH2 0xBC0 DUP2 PUSH2 0xA01 JUMP JUMPDEST DUP3 MSTORE POP POP JUMP JUMPDEST PUSH1 0x0 PUSH1 0x20 DUP3 ADD SWAP1 POP PUSH2 0xBDB PUSH1 0x0 DUP4 ADD DUP5 PUSH2 0xBB7 JUMP JUMPDEST SWAP3 SWAP2 POP POP JUMP JUMPDEST PUSH2 0xBEA DUP2 PUSH2 0x917 JUMP JUMPDEST DUP3 MSTORE POP POP JUMP JUMPDEST PUSH1 0x0 DUP3 DUP3 MSTORE PUSH1 0x20 DUP3 ADD SWAP1 POP SWAP3 SWAP2 POP POP JUMP JUMPDEST PUSH1 0x0 PUSH2 0xC0C DUP3 PUSH2 0x930 JUMP JUMPDEST PUSH2 0xC16 DUP2 DUP6 PUSH2 0xBF0 JUMP JUMPDEST SWAP4 POP PUSH2 0xC26 DUP2 DUP6 PUSH1 0x20 DUP7 ADD PUSH2 0x94C JUMP JUMPDEST PUSH2 0xC2F DUP2 PUSH2 0x976 JUMP JUMPDEST DUP5 ADD SWAP2 POP POP SWAP3 SWAP2 POP POP JUMP JUMPDEST PUSH2 0xC43 DUP2 PUSH2 0x9E0 JUMP JUMPDEST DUP3 MSTORE POP POP JUMP JUMPDEST PUSH1 0x0 PUSH1 0xA0 DUP3 ADD SWAP1 POP PUSH2 0xC5E PUSH1 0x0 DUP4 ADD DUP9 PUSH2 0xBE1 JUMP JUMPDEST DUP2 DUP2 SUB PUSH1 0x20 DUP4 ADD MSTORE PUSH2 0xC70 DUP2 DUP8 PUSH2 0xC01 JUMP JUMPDEST SWAP1 POP PUSH2 0xC7F PUSH1 0x40 DUP4 ADD DUP7 PUSH2 0xBE1 JUMP JUMPDEST PUSH2 0xC8C PUSH1 0x60 DUP4 ADD DUP6 PUSH2 0xC3A JUMP JUMPDEST PUSH2 0xC99 PUSH1 0x80 DUP4 ADD DUP5 PUSH2 0xBB7 JUMP JUMPDEST SWAP7 SWAP6 POP POP POP POP POP POP JUMP JUMPDEST PUSH1 0x0 PUSH1 0xA0 DUP4 ADD PUSH1 0x0 DUP4 ADD MLOAD PUSH2 0xCBB PUSH1 0x0 DUP7 ADD DUP3 PUSH2 0x921 JUMP JUMPDEST POP PUSH1 0x20 DUP4 ADD MLOAD DUP5 DUP3 SUB PUSH1 0x20 DUP7 ADD MSTORE PUSH2 0xCD3 DUP3 DUP3 PUSH2 0x987 JUMP JUMPDEST SWAP2 POP POP PUSH1 0x40 DUP4 ADD MLOAD PUSH2 0xCE8 PUSH1 0x40 DUP7 ADD DUP3 PUSH2 0x921 JUMP JUMPDEST POP PUSH1 0x60 DUP4 ADD MLOAD PUSH2 0xCFB PUSH1 0x60 DUP7 ADD DUP3 PUSH2 0x9F2 JUMP JUMPDEST POP PUSH1 0x80 DUP4 ADD MLOAD PUSH2 0xD0E PUSH1 0x80 DUP7 ADD DUP3 PUSH2 0xA0D JUMP JUMPDEST POP DUP1 SWAP2 POP POP SWAP3 SWAP2 POP POP JUMP JUMPDEST PUSH1 0x0 PUSH1 0x20 DUP3 ADD SWAP1 POP DUP2 DUP2 SUB PUSH1 0x0 DUP4 ADD MSTORE PUSH2 0xD33 DUP2 DUP5 PUSH2 0xCA3 JUMP JUMPDEST SWAP1 POP SWAP3 SWAP2 POP POP JUMP JUMPDEST PUSH1 0x0 PUSH1 0x20 DUP3 ADD SWAP1 POP PUSH2 0xD50 PUSH1 0x0 DUP4 ADD DUP5 PUSH2 0xBE1 JUMP JUMPDEST SWAP3 SWAP2 POP POP JUMP JUMPDEST PUSH1 0x0 DUP1 REVERT JUMPDEST PUSH1 0x0 DUP1 REVERT JUMPDEST PUSH32 0x4E487B7100000000000000000000000000000000000000000000000000000000 PUSH1 0x0 MSTORE PUSH1 0x41 PUSH1 0x4 MSTORE PUSH1 0x24 PUSH1 0x0 REVERT JUMPDEST PUSH2 0xD98 DUP3 PUSH2 0x976 JUMP JUMPDEST DUP2 ADD DUP2 DUP2 LT PUSH8 0xFFFFFFFFFFFFFFFF DUP3 GT OR ISZERO PUSH2 0xDB7 JUMPI PUSH2 0xDB6 PUSH2 0xD60 JUMP JUMPDEST JUMPDEST DUP1 PUSH1 0x40 MSTORE POP POP POP JUMP JUMPDEST PUSH1 0x0 PUSH2 0xDCA PUSH2 0xB4A JUMP JUMPDEST SWAP1 POP PUSH2 0xDD6 DUP3 DUP3 PUSH2 0xD8F JUMP JUMPDEST SWAP2 SWAP1 POP JUMP JUMPDEST PUSH1 0x0 PUSH8 0xFFFFFFFFFFFFFFFF DUP3 GT ISZERO PUSH2 0xDF6 JUMPI PUSH2 0xDF5 PUSH2 0xD60 JUMP JUMPDEST JUMPDEST PUSH2 0xDFF DUP3 PUSH2 0x976 JUMP JUMPDEST SWAP1 POP PUSH1 0x20 DUP2 ADD SWAP1 POP SWAP2 SWAP1 POP JUMP JUMPDEST DUP3 DUP2 DUP4 CALLDATACOPY PUSH1 0x0 DUP4 DUP4 ADD MSTORE POP POP POP JUMP JUMPDEST PUSH1 0x0 PUSH2 0xE2E PUSH2 0xE29 DUP5 PUSH2 0xDDB JUMP JUMPDEST PUSH2 0xDC0 JUMP JUMPDEST SWAP1 POP DUP3 DUP2 MSTORE PUSH1 0x20 DUP2 ADD DUP5 DUP5 DUP5 ADD GT ISZERO PUSH2 0xE4A JUMPI PUSH2 0xE49 PUSH2 0xD5B JUMP JUMPDEST JUMPDEST PUSH2 0xE55 DUP5 DUP3 DUP6 PUSH2 0xE0C JUMP JUMPDEST POP SWAP4 SWAP3 POP POP POP JUMP JUMPDEST PUSH1 0x0 DUP3 PUSH1 0x1F DUP4 ADD SLT PUSH2 0xE72 JUMPI PUSH2 0xE71 PUSH2 0xD56 JUMP JUMPDEST JUMPDEST DUP2 CALLDATALOAD PUSH2 0xE82 DUP5 DUP3 PUSH1 0x20 DUP7 ADD PUSH2 0xE1B JUMP JUMPDEST SWAP2 POP POP SWAP3 SWAP2 POP POP JUMP JUMPDEST PUSH1 0x0 DUP1 PUSH1 0x40 DUP4 DUP6 SUB SLT ISZERO PUSH2 0xEA2 JUMPI PUSH2 0xEA1 PUSH2 0xB54 JUMP JUMPDEST JUMPDEST PUSH1 0x0 DUP4 ADD CALLDATALOAD PUSH8 0xFFFFFFFFFFFFFFFF DUP2 GT ISZERO PUSH2 0xEC0 JUMPI PUSH2 0xEBF PUSH2 0xB59 JUMP JUMPDEST JUMPDEST PUSH2 0xECC DUP6 DUP3 DUP7 ADD PUSH2 0xE5D JUMP JUMPDEST SWAP3 POP POP PUSH1 0x20 PUSH2 0xEDD DUP6 DUP3 DUP7 ADD PUSH2 0xB75 JUMP JUMPDEST SWAP2 POP POP SWAP3 POP SWAP3 SWAP1 POP JUMP JUMPDEST PUSH32 0x4E487B7100000000000000000000000000000000000000000000000000000000 PUSH1 0x0 MSTORE PUSH1 0x22 PUSH1 0x4 MSTORE PUSH1 0x24 PUSH1 0x0 REVERT JUMPDEST PUSH1 0x0 PUSH1 0x2 DUP3 DIV SWAP1 POP PUSH1 0x1 DUP3 AND DUP1 PUSH2 0xF2E JUMPI PUSH1 0x7F DUP3 AND SWAP2 POP JUMPDEST PUSH1 0x20 DUP3 LT DUP2 SUB PUSH2 0xF41 JUMPI PUSH2 0xF40 PUSH2 0xEE7 JUMP JUMPDEST JUMPDEST POP SWAP2 SWAP1 POP JUMP JUMPDEST PUSH32 0x4E487B7100000000000000000000000000000000000000000000000000000000 PUSH1 0x0 MSTORE PUSH1 0x11 PUSH1 0x4 MSTORE PUSH1 0x24 PUSH1 0x0 REVERT JUMPDEST PUSH1 0x0 PUSH2 0xF81 DUP3 PUSH2 0x917 JUMP JUMPDEST SWAP2 POP PUSH2 0xF8C DUP4 PUSH2 0x917 JUMP JUMPDEST SWAP3 POP DUP3 DUP3 SUB SWAP1 POP DUP2 DUP2 GT ISZERO PUSH2 0xFA4 JUMPI PUSH2 0xFA3 PUSH2 0xF47 JUMP JUMPDEST JUMPDEST SWAP3 SWAP2 POP POP JUMP JUMPDEST PUSH32 0x4E487B7100000000000000000000000000000000000000000000000000000000 PUSH1 0x0 MSTORE PUSH1 0x32 PUSH1 0x4 MSTORE PUSH1 0x24 PUSH1 0x0 REVERT JUMPDEST PUSH1 0x0 PUSH2 0xFE4 DUP3 PUSH2 0x917 JUMP JUMPDEST SWAP2 POP PUSH32 0xFFFFFFFFFFFFFFFFFFFFFFFFFFFFFFFFFFFFFFFFFFFFFFFFFFFFFFFFFFFFFFFF DUP3 SUB PUSH2 0x1016 JUMPI PUSH2 0x1015 PUSH2 0xF47 JUMP JUMPDEST JUMPDEST PUSH1 0x1 DUP3 ADD SWAP1 POP SWAP2 SWAP1 POP JUMP JUMPDEST PUSH32 0x4F6E6C79207468652070726F64756374206F776E65722063616E207665726966 PUSH1 0x0 DUP3 ADD MSTORE PUSH32 0x792061757468656E746963697479000000000000000000000000000000000000 PUSH1 0x20 DUP3 ADD MSTORE POP JUMP JUMPDEST PUSH1 0x0 PUSH2 0x107D PUSH1 0x2E DUP4 PUSH2 0xBF0 JUMP JUMPDEST SWAP2 POP PUSH2 0x1088 DUP3 PUSH2 0x1021 JUMP JUMPDEST PUSH1 0x40 DUP3 ADD SWAP1 POP SWAP2 SWAP1 POP JUMP JUMPDEST PUSH1 0x0 PUSH1 0x20 DUP3 ADD SWAP1 POP DUP2 DUP2 SUB PUSH1 0x0 DUP4 ADD MSTORE PUSH2 0x10AC DUP2 PUSH2 0x1070 JUMP JUMPDEST SWAP1 POP SWAP2 SWAP1 POP JUMP JUMPDEST PUSH1 0x0 DUP2 SWAP1 POP DUP2 PUSH1 0x0 MSTORE PUSH1 0x20 PUSH1 0x0 KECCAK256 SWAP1 POP SWAP2 SWAP1 POP JUMP JUMPDEST PUSH1 0x0 PUSH1 0x20 PUSH1 0x1F DUP4 ADD DIV SWAP1 POP SWAP2 SWAP1 POP JUMP JUMPDEST PUSH1 0x0 DUP3 DUP3 SHL SWAP1 POP SWAP3 SWAP2 POP POP JUMP JUMPDEST PUSH1 0x0 PUSH1 0x8 DUP4 MUL PUSH2 0x1115 PUSH32 0xFFFFFFFFFFFFFFFFFFFFFFFFFFFFFFFFFFFFFFFFFFFFFFFFFFFFFFFFFFFFFFFF DUP3 PUSH2 0x10D8 JUMP JUMPDEST PUSH2 0x111F DUP7 DUP4 PUSH2 0x10D8 JUMP JUMPDEST SWAP6 POP DUP1 NOT DUP5 AND SWAP4 POP DUP1 DUP7 AND DUP5 OR SWAP3 POP POP POP SWAP4 SWAP3 POP POP POP JUMP JUMPDEST PUSH1 0x0 DUP2 SWAP1 POP SWAP2 SWAP1 POP JUMP JUMPDEST PUSH1 0x0 PUSH2 0x115C PUSH2 0x1157 PUSH2 0x1152 DUP5 PUSH2 0x917 JUMP JUMPDEST PUSH2 0x1137 JUMP JUMPDEST PUSH2 0x917 JUMP JUMPDEST SWAP1 POP SWAP2 SWAP1 POP JUMP JUMPDEST PUSH1 0x0 DUP2 SWAP1 POP SWAP2 SWAP1 POP JUMP JUMPDEST PUSH2 0x1176 DUP4 PUSH2 0x1141 JUMP JUMPDEST PUSH2 0x118A PUSH2 0x1182 DUP3 PUSH2 0x1163 JUMP JUMPDEST DUP5 DUP5 SLOAD PUSH2 0x10E5 JUMP JUMPDEST DUP3 SSTORE POP POP POP POP JUMP JUMPDEST PUSH1 0x0 SWAP1 JUMP JUMPDEST PUSH2 0x119F PUSH2 0x1192 JUMP JUMPDEST PUSH2 0x11AA DUP2 DUP5 DUP5 PUSH2 0x116D JUMP JUMPDEST POP POP POP JUMP JUMPDEST JUMPDEST DUP2 DUP2 LT ISZERO PUSH2 0x11CE JUMPI PUSH2 0x11C3 PUSH1 0x0 DUP3 PUSH2 0x1197 JUMP JUMPDEST PUSH1 0x1 DUP2 ADD SWAP1 POP PUSH2 0x11B0 JUMP JUMPDEST POP POP JUMP JUMPDEST PUSH1 0x1F DUP3 GT ISZERO PUSH2 0x1213 JUMPI PUSH2 0x11E4 DUP2 PUSH2 0x10B3 JUMP JUMPDEST PUSH2 0x11ED DUP5 PUSH2 0x10C8 JUMP JUMPDEST DUP2 ADD PUSH1 0x20 DUP6 LT ISZERO PUSH2 0x11FC JUMPI DUP2 SWAP1 POP JUMPDEST PUSH2 0x1210 PUSH2 0x1208 DUP6 PUSH2 0x10C8 JUMP JUMPDEST DUP4 ADD DUP3 PUSH2 0x11AF JUMP JUMPDEST POP POP JUMPDEST POP POP POP JUMP JUMPDEST PUSH1 0x0 DUP3 DUP3 SHR SWAP1 POP SWAP3 SWAP2 POP POP JUMP JUMPDEST PUSH1 0x0 PUSH2 0x1236 PUSH1 0x0 NOT DUP5 PUSH1 0x8 MUL PUSH2 0x1218 JUMP JUMPDEST NOT DUP1 DUP4 AND SWAP2 POP POP SWAP3 SWAP2 POP POP JUMP JUMPDEST PUSH1 0x0 PUSH2 0x124F DUP4 DUP4 PUSH2 0x1225 JUMP JUMPDEST SWAP2 POP DUP3 PUSH1 0x2 MUL DUP3 OR SWAP1 POP SWAP3 SWAP2 POP POP JUMP JUMPDEST PUSH2 0x1268 DUP3 PUSH2 0x930 JUMP JUMPDEST PUSH8 0xFFFFFFFFFFFFFFFF DUP2 GT ISZERO PUSH2 0x1281 JUMPI PUSH2 0x1280 PUSH2 0xD60 JUMP JUMPDEST JUMPDEST PUSH2 0x128B DUP3 SLOAD PUSH2 0xF16 JUMP JUMPDEST PUSH2 0x1296 DUP3 DUP3 DUP6 PUSH2 0x11D2 JUMP JUMPDEST PUSH1 0x0 PUSH1 0x20 SWAP1 POP PUSH1 0x1F DUP4 GT PUSH1 0x1 DUP2 EQ PUSH2 0x12C9 JUMPI PUSH1 0x0 DUP5 ISZERO PUSH2 0x12B7 JUMPI DUP3 DUP8 ADD MLOAD SWAP1 POP JUMPDEST PUSH2 0x12C1 DUP6 DUP3 PUSH2 0x1243 JUMP JUMPDEST DUP7 SSTORE POP PUSH2 0x1329 JUMP JUMPDEST PUSH1 0x1F NOT DUP5 AND PUSH2 0x12D7 DUP7 PUSH2 0x10B3 JUMP JUMPDEST PUSH1 0x0 JUMPDEST DUP3 DUP2 LT ISZERO PUSH2 0x12FF JUMPI DUP5 DUP10 ADD MLOAD DUP3 SSTORE PUSH1 0x1 DUP3 ADD SWAP2 POP PUSH1 0x20 DUP6 ADD SWAP5 POP PUSH1 0x20 DUP2 ADD SWAP1 POP PUSH2 0x12DA JUMP JUMPDEST DUP7 DUP4 LT ISZERO PUSH2 0x131C JUMPI DUP5 DUP10 ADD MLOAD PUSH2 0x1318 PUSH1 0x1F DUP10 AND DUP3 PUSH2 0x1225 JUMP JUMPDEST DUP4 SSTORE POP JUMPDEST PUSH1 0x1 PUSH1 0x2 DUP9 MUL ADD DUP9 SSTORE POP POP POP JUMPDEST POP POP POP POP POP POP JUMP INVALID LOG2 PUSH5 0x6970667358 0x22 SLT KECCAK256 0xBD 0x4B 0x4B PUSH3 0x7CF9D5 0xAF 0xED CALL ISZERO 0xA7 0x4F 0xC3 CALLDATASIZE CALLDATASIZE DUP6 ISZERO 0xB3 0x2D 0xB3 SUB 0xC9 0xC7 PUSH10 0x62152DF3C2DFA564736F PUSH13 0x63430008120033000000000000 "
				},
				"gasEstimates": {
					"creation": {
						"codeDepositCost": "993400",
						"executionCost": "6048",
						"totalCost": "999448"
					},
					"external": {
						"createProduct(string,uint256)": "infinite",
						"getAllProducts()": "infinite",
						"getProduct(uint256)": "infinite",
						"markProductAsFake(uint256)": "27084",
						"markProductAsReal(uint256)": "27061",
						"productCount()": "2473",
						"products(uint256)": "infinite",
						"verifyProductAuthenticity(uint256)": "2923"
					}
				},
				"methodIdentifiers": {
					"createProduct(string,uint256)": "e9300c6c",
					"getAllProducts()": "02ee3a52",
					"getProduct(uint256)": "b9db15b4",
					"markProductAsFake(uint256)": "031e0535",
					"markProductAsReal(uint256)": "99b19ed3",
					"productCount()": "e0f6ef87",
					"products(uint256)": "7acc0b20",
					"verifyProductAuthenticity(uint256)": "767bdff1"
				}
			},
			"storageLayout": {
				"storage": [
					{
						"astId": 17,
						"contract": "product.sol:product",
						"label": "products",
						"offset": 0,
						"slot": "0",
						"type": "t_mapping(t_uint256,t_struct(Product)12_storage)"
					},
					{
						"astId": 19,
						"contract": "product.sol:product",
						"label": "productCount",
						"offset": 0,
						"slot": "1",
						"type": "t_uint256"
					}
				],
				"types": {
					"t_address": {
						"encoding": "inplace",
						"label": "address",
						"numberOfBytes": "20"
					},
					"t_bool": {
						"encoding": "inplace",
						"label": "bool",
						"numberOfBytes": "1"
					},
					"t_mapping(t_uint256,t_struct(Product)12_storage)": {
						"encoding": "mapping",
						"key": "t_uint256",
						"label": "mapping(uint256 => struct product.Product)",
						"numberOfBytes": "32",
						"value": "t_struct(Product)12_storage"
					},
					"t_string_storage": {
						"encoding": "bytes",
						"label": "string",
						"numberOfBytes": "32"
					},
					"t_struct(Product)12_storage": {
						"encoding": "inplace",
						"label": "struct product.Product",
						"members": [
							{
								"astId": 3,
								"contract": "product.sol:product",
								"label": "id",
								"offset": 0,
								"slot": "0",
								"type": "t_uint256"
							},
							{
								"astId": 5,
								"contract": "product.sol:product",
								"label": "name",
								"offset": 0,
								"slot": "1",
								"type": "t_string_storage"
							},
							{
								"astId": 7,
								"contract": "product.sol:product",
								"label": "price",
								"offset": 0,
								"slot": "2",
								"type": "t_uint256"
							},
							{
								"astId": 9,
								"contract": "product.sol:product",
								"label": "owner",
								"offset": 0,
								"slot": "3",
								"type": "t_address"
							},
							{
								"astId": 11,
								"contract": "product.sol:product",
								"label": "isAuthentic",
								"offset": 20,
								"slot": "3",
								"type": "t_bool"
							}
						],
						"numberOfBytes": "128"
					},
					"t_uint256": {
						"encoding": "inplace",
						"label": "uint256",
						"numberOfBytes": "32"
					}
				}
			},
			"userdoc": {
				"kind": "user",
				"methods": {},
				"version": 1
			}
		}
	}
}