{
  "contractName": "product",
  "abi": [
    {
      "inputs": [],
      "stateMutability": "nonpayable",
      "type": "constructor"
    },
    {
      "inputs": [],
      "name": "productCount",
      "outputs": [
        {
          "internalType": "uint256",
          "name": "",
          "type": "uint256"
        }
      ],
      "stateMutability": "view",
      "type": "function",
      "constant": true
    },
    {
      "inputs": [
        {
          "internalType": "uint256",
          "name": "",
          "type": "uint256"
        }
      ],
      "name": "products",
      "outputs": [
        {
          "internalType": "uint256",
          "name": "id",
          "type": "uint256"
        },
        {
          "internalType": "string",
          "name": "name",
          "type": "string"
        },
        {
          "internalType": "uint256",
          "name": "price",
          "type": "uint256"
        },
        {
          "internalType": "address",
          "name": "owner",
          "type": "address"
        },
        {
          "internalType": "bool",
          "name": "isAuthentic",
          "type": "bool"
        }
      ],
      "stateMutability": "view",
      "type": "function",
      "constant": true
    },
    {
      "inputs": [
        {
          "internalType": "string",
          "name": "_name",
          "type": "string"
        },
        {
          "internalType": "uint256",
          "name": "_price",
          "type": "uint256"
        }
      ],
      "name": "createProduct",
      "outputs": [],
      "stateMutability": "nonpayable",
      "type": "function"
    },
    {
      "inputs": [
        {
          "internalType": "uint256",
          "name": "_id",
          "type": "uint256"
        }
      ],
      "name": "verifyProductAuthenticity",
      "outputs": [
        {
          "internalType": "bool",
          "name": "",
          "type": "bool"
        }
      ],
      "stateMutability": "view",
      "type": "function",
      "constant": true
    },
    {
      "inputs": [
        {
          "internalType": "uint256",
          "name": "_id",
          "type": "uint256"
        }
      ],
      "name": "markProductAsFake",
      "outputs": [],
      "stateMutability": "nonpayable",
      "type": "function"
    },
    {
      "inputs": [
        {
          "internalType": "uint256",
          "name": "_id",
          "type": "uint256"
        }
      ],
      "name": "markProductAsReal",
      "outputs": [],
      "stateMutability": "nonpayable",
      "type": "function"
    },
    {
      "inputs": [],
      "name": "getAllProducts",
      "outputs": [
        {
          "components": [
            {
              "internalType": "uint256",
              "name": "id",
              "type": "uint256"
            },
            {
              "internalType": "string",
              "name": "name",
              "type": "string"
            },
            {
              "internalType": "uint256",
              "name": "price",
              "type": "uint256"
            },
            {
              "internalType": "address",
              "name": "owner",
              "type": "address"
            },
            {
              "internalType": "bool",
              "name": "isAuthentic",
              "type": "bool"
            }
          ],
          "internalType": "struct product.Product[]",
          "name": "",
          "type": "tuple[]"
        }
      ],
      "stateMutability": "view",
      "type": "function",
      "constant": true
    },
    {
      "inputs": [
        {
          "internalType": "uint256",
          "name": "_id",
          "type": "uint256"
        }
      ],
      "name": "getProduct",
      "outputs": [
        {
          "components": [
            {
              "internalType": "uint256",
              "name": "id",
              "type": "uint256"
            },
            {
              "internalType": "string",
              "name": "name",
              "type": "string"
            },
            {
              "internalType": "uint256",
              "name": "price",
              "type": "uint256"
            },
            {
              "internalType": "address",
              "name": "owner",
              "type": "address"
            },
            {
              "internalType": "bool",
              "name": "isAuthentic",
              "type": "bool"
            }
          ],
          "internalType": "struct product.Product",
          "name": "",
          "type": "tuple"
        }
      ],
      "stateMutability": "view",
      "type": "function",
      "constant": true
    }
  ],
  "bytecode": "0x608060405234801561001057600080fd5b506000600181905550611161806100286000396000f3fe608060405234801561001057600080fd5b50600436106100885760003560e01c806399b19ed31161005b57806399b19ed31461012b578063b9db15b414610147578063e0f6ef8714610177578063e9300c6c1461019557610088565b806302ee3a521461008d578063031e0535146100ab578063767bdff1146100c75780637acc0b20146100f7575b600080fd5b6100956101b1565b6040516100a29190610d82565b60405180910390f35b6100c560048036038101906100c09190610ab2565b6103e2565b005b6100e160048036038101906100dc9190610ab2565b6104b6565b6040516100ee9190610da4565b60405180910390f35b610111600480360381019061010c9190610ab2565b6104e2565b604051610122959493929190610e1c565b60405180910390f35b61014560048036038101906101409190610ab2565b6105cd565b005b610161600480360381019061015c9190610ab2565b6106a1565b60405161016e9190610ddf565b60405180910390f35b61017f6107e4565b60405161018c9190610e01565b60405180910390f35b6101af60048036038101906101aa9190610a5e565b6107ea565b005b6060600060015467ffffffffffffffff8111156101f7577f4e487b7100000000000000000000000000000000000000000000000000000000600052604160045260246000fd5b60405190808252806020026020018201604052801561023057816020015b61021d6108f7565b8152602001906001900390816102155790505b5090506000600190505b60015481116103da576000808281526020019081526020016000206040518060a00160405290816000820154815260200160018201805461027a90610ffb565b80601f01602080910402602001604051908101604052809291908181526020018280546102a690610ffb565b80156102f35780601f106102c8576101008083540402835291602001916102f3565b820191906000526020600020905b8154815290600101906020018083116102d657829003601f168201915b50505050508152602001600282015481526020016003820160009054906101000a900473ffffffffffffffffffffffffffffffffffffffff1673ffffffffffffffffffffffffffffffffffffffff1673ffffffffffffffffffffffffffffffffffffffff1681526020016003820160149054906101000a900460ff161515151581525050826001836103859190610f3d565b815181106103bc577f4e487b7100000000000000000000000000000000000000000000000000000000600052603260045260246000fd5b602002602001018190525080806103d29061102d565b91505061023a565b508091505090565b3373ffffffffffffffffffffffffffffffffffffffff1660008083815260200190815260200160002060030160009054906101000a900473ffffffffffffffffffffffffffffffffffffffff1673ffffffffffffffffffffffffffffffffffffffff1614610485576040517f08c379a000000000000000000000000000000000000000000000000000000000815260040161047c90610dbf565b60405180910390fd5b600080600083815260200190815260200160002060030160146101000a81548160ff02191690831515021790555050565b600080600083815260200190815260200160002060030160149054906101000a900460ff169050919050565b600060205280600052604060002060009150905080600001549080600101805461050b90610ffb565b80601f016020809104026020016040519081016040528092919081815260200182805461053790610ffb565b80156105845780601f1061055957610100808354040283529160200191610584565b820191906000526020600020905b81548152906001019060200180831161056757829003601f168201915b5050505050908060020154908060030160009054906101000a900473ffffffffffffffffffffffffffffffffffffffff16908060030160149054906101000a900460ff16905085565b3373ffffffffffffffffffffffffffffffffffffffff1660008083815260200190815260200160002060030160009054906101000a900473ffffffffffffffffffffffffffffffffffffffff1673ffffffffffffffffffffffffffffffffffffffff1614610670576040517f08c379a000000000000000000000000000000000000000000000000000000000815260040161066790610dbf565b60405180910390fd5b600160008083815260200190815260200160002060030160146101000a81548160ff02191690831515021790555050565b6106a96108f7565b6000808381526020019081526020016000206040518060a0016040529081600082015481526020016001820180546106e090610ffb565b80601f016020809104026020016040519081016040528092919081815260200182805461070c90610ffb565b80156107595780601f1061072e57610100808354040283529160200191610759565b820191906000526020600020905b81548152906001019060200180831161073c57829003601f168201915b50505050508152602001600282015481526020016003820160009054906101000a900473ffffffffffffffffffffffffffffffffffffffff1673ffffffffffffffffffffffffffffffffffffffff1673ffffffffffffffffffffffffffffffffffffffff1681526020016003820160149054906101000a900460ff1615151515815250509050919050565b60015481565b600160008154809291906107fd9061102d565b91905055506040518060a0016040528060015481526020018381526020018281526020013373ffffffffffffffffffffffffffffffffffffffff16815260200160011515815250600080600154815260200190815260200160002060008201518160000155602082015181600101908051906020019061087e92919061093e565b506040820151816002015560608201518160030160006101000a81548173ffffffffffffffffffffffffffffffffffffffff021916908373ffffffffffffffffffffffffffffffffffffffff16021790555060808201518160030160146101000a81548160ff0219169083151502179055509050505050565b6040518060a00160405280600081526020016060815260200160008152602001600073ffffffffffffffffffffffffffffffffffffffff1681526020016000151581525090565b82805461094a90610ffb565b90600052602060002090601f01602090048101928261096c57600085556109b3565b82601f1061098557805160ff19168380011785556109b3565b828001600101855582156109b3579182015b828111156109b2578251825591602001919060010190610997565b5b5090506109c091906109c4565b5090565b5b808211156109dd5760008160009055506001016109c5565b5090565b60006109f46109ef84610ea7565b610e76565b905082815260208101848484011115610a0c57600080fd5b610a17848285610fb9565b509392505050565b600082601f830112610a3057600080fd5b8135610a408482602086016109e1565b91505092915050565b600081359050610a5881611114565b92915050565b60008060408385031215610a7157600080fd5b600083013567ffffffffffffffff811115610a8b57600080fd5b610a9785828601610a1f565b9250506020610aa885828601610a49565b9150509250929050565b600060208284031215610ac457600080fd5b6000610ad284828501610a49565b91505092915050565b6000610ae78383610c78565b905092915050565b610af881610f71565b82525050565b610b0781610f71565b82525050565b6000610b1882610ee7565b610b228185610f0a565b935083602082028501610b3485610ed7565b8060005b85811015610b705784840389528151610b518582610adb565b9450610b5c83610efd565b925060208a01995050600181019050610b38565b50829750879550505050505092915050565b610b8b81610f83565b82525050565b610b9a81610f83565b82525050565b6000610bab82610ef2565b610bb58185610f1b565b9350610bc5818560208601610fc8565b610bce81611103565b840191505092915050565b6000610be482610ef2565b610bee8185610f2c565b9350610bfe818560208601610fc8565b610c0781611103565b840191505092915050565b6000610c1f602e83610f2c565b91507f4f6e6c79207468652070726f64756374206f776e65722063616e20766572696660008301527f792061757468656e7469636974790000000000000000000000000000000000006020830152604082019050919050565b600060a083016000830151610c906000860182610d64565b5060208301518482036020860152610ca88282610ba0565b9150506040830151610cbd6040860182610d64565b506060830151610cd06060860182610aef565b506080830151610ce36080860182610b82565b508091505092915050565b600060a083016000830151610d066000860182610d64565b5060208301518482036020860152610d1e8282610ba0565b9150506040830151610d336040860182610d64565b506060830151610d466060860182610aef565b506080830151610d596080860182610b82565b508091505092915050565b610d6d81610faf565b82525050565b610d7c81610faf565b82525050565b60006020820190508181036000830152610d9c8184610b0d565b905092915050565b6000602082019050610db96000830184610b91565b92915050565b60006020820190508181036000830152610dd881610c12565b9050919050565b60006020820190508181036000830152610df98184610cee565b905092915050565b6000602082019050610e166000830184610d73565b92915050565b600060a082019050610e316000830188610d73565b8181036020830152610e438187610bd9565b9050610e526040830186610d73565b610e5f6060830185610afe565b610e6c6080830184610b91565b9695505050505050565b6000604051905081810181811067ffffffffffffffff82111715610e9d57610e9c6110d4565b5b8060405250919050565b600067ffffffffffffffff821115610ec257610ec16110d4565b5b601f19601f8301169050602081019050919050565b6000819050602082019050919050565b600081519050919050565b600081519050919050565b6000602082019050919050565b600082825260208201905092915050565b600082825260208201905092915050565b600082825260208201905092915050565b6000610f4882610faf565b9150610f5383610faf565b925082821015610f6657610f65611076565b5b828203905092915050565b6000610f7c82610f8f565b9050919050565b60008115159050919050565b600073ffffffffffffffffffffffffffffffffffffffff82169050919050565b6000819050919050565b82818337600083830152505050565b60005b83811015610fe6578082015181840152602081019050610fcb565b83811115610ff5576000848401525b50505050565b6000600282049050600182168061101357607f821691505b60208210811415611027576110266110a5565b5b50919050565b600061103882610faf565b91507fffffffffffffffffffffffffffffffffffffffffffffffffffffffffffffffff82141561106b5761106a611076565b5b600182019050919050565b7f4e487b7100000000000000000000000000000000000000000000000000000000600052601160045260246000fd5b7f4e487b7100000000000000000000000000000000000000000000000000000000600052602260045260246000fd5b7f4e487b7100000000000000000000000000000000000000000000000000000000600052604160045260246000fd5b6000601f19601f8301169050919050565b61111d81610faf565b811461112857600080fd5b5056fea2646970667358221220e517e8c8ba080e19cbf632924583f64f1daa1a3042fd19732596220a5b8906fe64736f6c63430008000033",
  "immutableReferences": {},
  "source": "//SPDX-License-Identifier: UNLICENSED\r\npragma solidity ^0.8.0;\r\n\r\ncontract product {\r\n    struct Product {\r\n        uint256 id;\r\n        string name;\r\n        uint256 price;\r\n        address owner;\r\n        bool isAuthentic;\r\n    }\r\n    \r\n    mapping (uint256 => Product) public products;\r\n    uint256 public productCount;\r\n    \r\n    constructor() {\r\n        productCount = 0;\r\n    }\r\n    \r\n    function createProduct(string memory _name, uint256 _price) public {\r\n        productCount++;\r\n        products[productCount] = Product(productCount, _name, _price, msg.sender, true);\r\n    }\r\n    \r\n    function verifyProductAuthenticity(uint256 _id) public view returns (bool) {\r\n        return products[_id].isAuthentic;\r\n    }\r\n    \r\n    function markProductAsFake(uint256 _id) public{\r\n        require(products[_id].owner == msg.sender, \"Only the product owner can verify authenticity\");\r\n        products[_id].isAuthentic = false;\r\n    }\r\n    function markProductAsReal(uint256 _id) public{\r\n        require(products[_id].owner == msg.sender, \"Only the product owner can verify authenticity\");\r\n        products[_id].isAuthentic = true;\r\n    }\r\n    \r\n    function getAllProducts() public view returns (Product[] memory) {\r\n        Product[] memory allProducts = new Product[](productCount);\r\n        \r\n        for (uint256 i = 1; i <= productCount; i++) {\r\n            allProducts[i - 1] = products[i];\r\n        }\r\n        return allProducts;\r\n    }\r\n    \r\n    function getProduct(uint256 _id) public view returns (Product memory) {\r\n        return products[_id];\r\n    }\r\n}\r\n",
  "sourcePath": "D:\\Sem 6\\Mini Project\\FPI\\contracts\\product.sol",
  "compiler": {
    "name": "solc",
    "version": "0.8.0+commit.c7dfd78e.Emscripten.clang"
  },
  "schemaVersion": "3.4.13",
  "updatedAt": "2023-05-13T08:02:06.190Z",
  "networkType": "ethereum",
  "devdoc": {
    "kind": "dev",
    "methods": {},
    "version": 1
  },
  "userdoc": {
    "kind": "user",
    "methods": {},
    "version": 1
  }
}